{
  "_format": "hh-sol-artifact-1",
  "contractName": "ParamiHyperlink",
  "sourceName": "contracts/ParamiHyperlink.sol",
  "abi": [
    {
      "inputs": [
        {
          "internalType": "address",
          "name": "bridge",
          "type": "address"
        }
      ],
      "stateMutability": "nonpayable",
      "type": "constructor"
    },
    {
      "anonymous": false,
      "inputs": [
        {
          "indexed": true,
          "internalType": "address",
          "name": "owner",
          "type": "address"
        },
        {
          "indexed": true,
          "internalType": "address",
          "name": "approved",
          "type": "address"
        },
        {
          "indexed": true,
          "internalType": "uint256",
          "name": "tokenId",
          "type": "uint256"
        }
      ],
      "name": "Approval",
      "type": "event"
    },
    {
      "anonymous": false,
      "inputs": [
        {
          "indexed": true,
          "internalType": "address",
          "name": "owner",
          "type": "address"
        },
        {
          "indexed": true,
          "internalType": "address",
          "name": "operator",
          "type": "address"
        },
        {
          "indexed": false,
          "internalType": "bool",
          "name": "approved",
          "type": "bool"
        }
      ],
      "name": "ApprovalForAll",
      "type": "event"
    },
    {
      "anonymous": false,
      "inputs": [
        {
          "indexed": true,
          "internalType": "bytes32",
          "name": "role",
          "type": "bytes32"
        },
        {
          "indexed": true,
          "internalType": "bytes32",
          "name": "previousAdminRole",
          "type": "bytes32"
        },
        {
          "indexed": true,
          "internalType": "bytes32",
          "name": "newAdminRole",
          "type": "bytes32"
        }
      ],
      "name": "RoleAdminChanged",
      "type": "event"
    },
    {
      "anonymous": false,
      "inputs": [
        {
          "indexed": true,
          "internalType": "bytes32",
          "name": "role",
          "type": "bytes32"
        },
        {
          "indexed": true,
          "internalType": "address",
          "name": "account",
          "type": "address"
        },
        {
          "indexed": true,
          "internalType": "address",
          "name": "sender",
          "type": "address"
        }
      ],
      "name": "RoleGranted",
      "type": "event"
    },
    {
      "anonymous": false,
      "inputs": [
        {
          "indexed": true,
          "internalType": "bytes32",
          "name": "role",
          "type": "bytes32"
        },
        {
          "indexed": true,
          "internalType": "address",
          "name": "account",
          "type": "address"
        },
        {
          "indexed": true,
          "internalType": "address",
          "name": "sender",
          "type": "address"
        }
      ],
      "name": "RoleRevoked",
      "type": "event"
    },
    {
      "anonymous": false,
      "inputs": [
        {
          "indexed": true,
          "internalType": "address",
          "name": "operator",
          "type": "address"
        },
        {
          "indexed": true,
          "internalType": "address",
          "name": "from",
          "type": "address"
        },
        {
          "indexed": false,
          "internalType": "uint256",
          "name": "tokenId",
          "type": "uint256"
        },
        {
          "indexed": true,
          "internalType": "address",
          "name": "oriContract",
          "type": "address"
        }
      ],
      "name": "TokenReceived",
      "type": "event"
    },
    {
      "anonymous": false,
      "inputs": [
        {
          "indexed": true,
          "internalType": "address",
          "name": "from",
          "type": "address"
        },
        {
          "indexed": true,
          "internalType": "address",
          "name": "to",
          "type": "address"
        },
        {
          "indexed": true,
          "internalType": "uint256",
          "name": "tokenId",
          "type": "uint256"
        }
      ],
      "name": "Transfer",
      "type": "event"
    },
    {
      "inputs": [],
      "name": "BRIDGE",
      "outputs": [
        {
          "internalType": "bytes32",
          "name": "",
          "type": "bytes32"
        }
      ],
      "stateMutability": "view",
      "type": "function"
    },
    {
      "inputs": [],
      "name": "DEFAULT_ADMIN_ROLE",
      "outputs": [
        {
          "internalType": "bytes32",
          "name": "",
          "type": "bytes32"
        }
      ],
      "stateMutability": "view",
      "type": "function"
    },
    {
      "inputs": [
        {
          "internalType": "address",
          "name": "to",
          "type": "address"
        },
        {
          "internalType": "uint256",
          "name": "tokenId",
          "type": "uint256"
        }
      ],
      "name": "approve",
      "outputs": [],
      "stateMutability": "nonpayable",
      "type": "function"
    },
    {
      "inputs": [
        {
          "internalType": "uint256",
          "name": "tokenId",
          "type": "uint256"
        },
        {
          "internalType": "address",
          "name": "to",
          "type": "address"
        },
        {
          "internalType": "string",
          "name": "key",
          "type": "string"
        }
      ],
      "name": "approveMetaKey",
      "outputs": [],
      "stateMutability": "nonpayable",
      "type": "function"
    },
    {
      "inputs": [
        {
          "internalType": "address",
          "name": "owner",
          "type": "address"
        }
      ],
      "name": "balanceOf",
      "outputs": [
        {
          "internalType": "uint256",
          "name": "",
          "type": "uint256"
        }
      ],
      "stateMutability": "view",
      "type": "function"
    },
    {
      "inputs": [
        {
          "internalType": "uint256",
          "name": "tokenId",
          "type": "uint256"
        }
      ],
      "name": "getApproved",
      "outputs": [
        {
          "internalType": "address",
          "name": "",
          "type": "address"
        }
      ],
      "stateMutability": "view",
      "type": "function"
    },
    {
      "inputs": [
        {
          "internalType": "uint256",
          "name": "tokenId",
          "type": "uint256"
        },
        {
          "internalType": "string",
          "name": "key",
          "type": "string"
        }
      ],
      "name": "getMetaEntry",
      "outputs": [
        {
          "internalType": "string",
          "name": "",
          "type": "string"
        }
      ],
      "stateMutability": "view",
      "type": "function"
    },
    {
      "inputs": [
        {
          "internalType": "uint256",
          "name": "tokenId",
          "type": "uint256"
        }
      ],
      "name": "getMetaKeysCountOfTokenId",
      "outputs": [
        {
          "internalType": "uint256",
          "name": "",
          "type": "uint256"
        }
      ],
      "stateMutability": "view",
      "type": "function"
    },
    {
      "inputs": [
        {
          "internalType": "uint256",
          "name": "tokenId",
          "type": "uint256"
        }
      ],
      "name": "getOriginalName",
      "outputs": [
        {
          "internalType": "string",
          "name": "",
          "type": "string"
        }
      ],
      "stateMutability": "view",
      "type": "function"
    },
    {
      "inputs": [
        {
          "internalType": "uint256",
          "name": "tokenId",
          "type": "uint256"
        }
      ],
      "name": "getOriginalSymbol",
      "outputs": [
        {
          "internalType": "string",
          "name": "",
          "type": "string"
        }
      ],
      "stateMutability": "view",
      "type": "function"
    },
    {
      "inputs": [
        {
          "internalType": "bytes32",
          "name": "role",
          "type": "bytes32"
        }
      ],
      "name": "getRoleAdmin",
      "outputs": [
        {
          "internalType": "bytes32",
          "name": "",
          "type": "bytes32"
        }
      ],
      "stateMutability": "view",
      "type": "function"
    },
    {
      "inputs": [
        {
          "internalType": "bytes32",
          "name": "role",
          "type": "bytes32"
        },
        {
          "internalType": "address",
          "name": "account",
          "type": "address"
        }
      ],
      "name": "grantRole",
      "outputs": [],
      "stateMutability": "nonpayable",
      "type": "function"
    },
    {
      "inputs": [
        {
          "internalType": "bytes32",
          "name": "role",
          "type": "bytes32"
        },
        {
          "internalType": "address",
          "name": "account",
          "type": "address"
        }
      ],
      "name": "hasRole",
      "outputs": [
        {
          "internalType": "bool",
          "name": "",
          "type": "bool"
        }
      ],
      "stateMutability": "view",
      "type": "function"
    },
    {
      "inputs": [
        {
          "internalType": "address",
          "name": "owner",
          "type": "address"
        },
        {
          "internalType": "address",
          "name": "operator",
          "type": "address"
        }
      ],
      "name": "isApprovedForAll",
      "outputs": [
        {
          "internalType": "bool",
          "name": "",
          "type": "bool"
        }
      ],
      "stateMutability": "view",
      "type": "function"
    },
    {
      "inputs": [
        {
          "internalType": "uint256",
          "name": "tokenId",
          "type": "uint256"
        },
        {
          "internalType": "address",
          "name": "user",
          "type": "address"
        },
        {
          "internalType": "string",
          "name": "key",
          "type": "string"
        }
      ],
      "name": "isApprovedMetaKey",
      "outputs": [
        {
          "internalType": "bool",
          "name": "",
          "type": "bool"
        }
      ],
      "stateMutability": "view",
      "type": "function"
    },
    {
      "inputs": [
        {
          "internalType": "uint256",
          "name": "tokenId",
          "type": "uint256"
        },
        {
          "internalType": "string",
          "name": "key",
          "type": "string"
        }
      ],
      "name": "isMetaKeyFreeToApprove",
      "outputs": [
        {
          "internalType": "bool",
          "name": "",
          "type": "bool"
        }
      ],
      "stateMutability": "view",
      "type": "function"
    },
    {
      "inputs": [],
      "name": "name",
      "outputs": [
        {
          "internalType": "string",
          "name": "",
          "type": "string"
        }
      ],
      "stateMutability": "view",
      "type": "function"
    },
    {
      "inputs": [
        {
          "internalType": "address",
          "name": "operator",
          "type": "address"
        },
        {
          "internalType": "address",
          "name": "from",
          "type": "address"
        },
        {
          "internalType": "uint256",
          "name": "tokenId",
          "type": "uint256"
        },
        {
          "internalType": "bytes",
          "name": "data",
          "type": "bytes"
        }
      ],
      "name": "onERC721Received",
      "outputs": [
        {
          "internalType": "bytes4",
          "name": "",
          "type": "bytes4"
        }
      ],
      "stateMutability": "nonpayable",
      "type": "function"
    },
    {
      "inputs": [
        {
          "internalType": "uint256",
          "name": "tokenId",
          "type": "uint256"
        }
      ],
      "name": "ownerOf",
      "outputs": [
        {
          "internalType": "address",
          "name": "",
          "type": "address"
        }
      ],
      "stateMutability": "view",
      "type": "function"
    },
    {
      "inputs": [
        {
          "internalType": "bytes32",
          "name": "role",
          "type": "bytes32"
        },
        {
          "internalType": "address",
          "name": "account",
          "type": "address"
        }
      ],
      "name": "renounceRole",
      "outputs": [],
      "stateMutability": "nonpayable",
      "type": "function"
    },
    {
      "inputs": [
        {
          "internalType": "bytes32",
          "name": "role",
          "type": "bytes32"
        },
        {
          "internalType": "address",
          "name": "account",
          "type": "address"
        }
      ],
      "name": "revokeRole",
      "outputs": [],
      "stateMutability": "nonpayable",
      "type": "function"
    },
    {
      "inputs": [
        {
          "internalType": "address",
          "name": "from",
          "type": "address"
        },
        {
          "internalType": "address",
          "name": "to",
          "type": "address"
        },
        {
          "internalType": "uint256",
          "name": "tokenId",
          "type": "uint256"
        }
      ],
      "name": "safeTransferFrom",
      "outputs": [],
      "stateMutability": "nonpayable",
      "type": "function"
    },
    {
      "inputs": [
        {
          "internalType": "address",
          "name": "from",
          "type": "address"
        },
        {
          "internalType": "address",
          "name": "to",
          "type": "address"
        },
        {
          "internalType": "uint256",
          "name": "tokenId",
          "type": "uint256"
        },
        {
          "internalType": "bytes",
          "name": "_data",
          "type": "bytes"
        }
      ],
      "name": "safeTransferFrom",
      "outputs": [],
      "stateMutability": "nonpayable",
      "type": "function"
    },
    {
      "inputs": [
        {
          "internalType": "address",
          "name": "operator",
          "type": "address"
        },
        {
          "internalType": "bool",
          "name": "approved",
          "type": "bool"
        }
      ],
      "name": "setApprovalForAll",
      "outputs": [],
      "stateMutability": "nonpayable",
      "type": "function"
    },
    {
      "inputs": [
        {
          "internalType": "uint256",
          "name": "tokenId",
          "type": "uint256"
        },
        {
          "internalType": "string",
          "name": "key",
          "type": "string"
        },
        {
          "internalType": "string",
          "name": "value",
          "type": "string"
        }
      ],
      "name": "setMetaEntry",
      "outputs": [],
      "stateMutability": "nonpayable",
      "type": "function"
    },
    {
      "inputs": [
        {
          "internalType": "bytes4",
          "name": "interfaceId",
          "type": "bytes4"
        }
      ],
      "name": "supportsInterface",
      "outputs": [
        {
          "internalType": "bool",
          "name": "",
          "type": "bool"
        }
      ],
      "stateMutability": "view",
      "type": "function"
    },
    {
      "inputs": [],
      "name": "symbol",
      "outputs": [
        {
          "internalType": "string",
          "name": "",
          "type": "string"
        }
      ],
      "stateMutability": "view",
      "type": "function"
    },
    {
      "inputs": [
        {
          "internalType": "uint256",
          "name": "index",
          "type": "uint256"
        }
      ],
      "name": "tokenByIndex",
      "outputs": [
        {
          "internalType": "uint256",
          "name": "",
          "type": "uint256"
        }
      ],
      "stateMutability": "view",
      "type": "function"
    },
    {
      "inputs": [
        {
          "internalType": "address",
          "name": "owner",
          "type": "address"
        },
        {
          "internalType": "uint256",
          "name": "index",
          "type": "uint256"
        }
      ],
      "name": "tokenOfOwnerByIndex",
      "outputs": [
        {
          "internalType": "uint256",
          "name": "",
          "type": "uint256"
        }
      ],
      "stateMutability": "view",
      "type": "function"
    },
    {
      "inputs": [
        {
          "internalType": "uint256",
          "name": "tokenId",
          "type": "uint256"
        }
      ],
      "name": "tokenURI",
      "outputs": [
        {
          "internalType": "string",
          "name": "",
          "type": "string"
        }
      ],
      "stateMutability": "view",
      "type": "function"
    },
    {
      "inputs": [],
      "name": "totalSupply",
      "outputs": [
        {
          "internalType": "uint256",
          "name": "",
          "type": "uint256"
        }
      ],
      "stateMutability": "view",
      "type": "function"
    },
    {
      "inputs": [
        {
          "internalType": "address",
          "name": "from",
          "type": "address"
        },
        {
          "internalType": "address",
          "name": "to",
          "type": "address"
        },
        {
          "internalType": "uint256",
          "name": "tokenId",
          "type": "uint256"
        }
      ],
      "name": "transferFrom",
      "outputs": [],
      "stateMutability": "nonpayable",
      "type": "function"
    },
    {
      "inputs": [
        {
          "internalType": "uint256",
          "name": "tokenId",
          "type": "uint256"
        },
        {
          "internalType": "string",
          "name": "key",
          "type": "string"
        }
      ],
      "name": "unapproveAndDropMeta",
      "outputs": [],
      "stateMutability": "nonpayable",
      "type": "function"
    },
    {
      "inputs": [
        {
          "internalType": "uint256",
          "name": "tokenId",
          "type": "uint256"
        }
      ],
      "name": "unwrap",
      "outputs": [],
      "stateMutability": "nonpayable",
      "type": "function"
    },
    {
      "inputs": [
        {
          "internalType": "address",
          "name": "erc721Contract",
          "type": "address"
        },
        {
          "internalType": "uint256",
          "name": "_tokenId",
          "type": "uint256"
        },
        {
          "internalType": "string",
          "name": "data",
          "type": "string"
        }
      ],
      "name": "wrap",
      "outputs": [],
      "stateMutability": "nonpayable",
      "type": "function"
    }
  ],
  "bytecode": "0x60806040523480156200001157600080fd5b50604051620046053803806200460583398101604081905262000034916200024e565b604080518082018252601081526f506172616d692048797065726c696e6b60801b60208083019182528351808501909452600384526214121360ea1b9084015281519192916200008791600191620001a8565b5080516200009d906002906020840190620001a8565b505050620000d27f08fb31c3e81624356c3314088aa971b73bcc82d22bc3e3b184b4593077ae327882620000f860201b60201c565b600c80546001600160a01b0319166001600160a01b0392909216919091179055620002bb565b62000104828262000108565b5050565b6000828152602081815260408083206001600160a01b038516845290915290205460ff1662000104576000828152602081815260408083206001600160a01b03851684529091529020805460ff19166001179055620001643390565b6001600160a01b0316816001600160a01b0316837f2f8788117e7eff1d82e926ec794901d17c78024a50270940304540a733656f0d60405160405180910390a45050565b828054620001b6906200027e565b90600052602060002090601f016020900481019282620001da576000855562000225565b82601f10620001f557805160ff191683800117855562000225565b8280016001018555821562000225579182015b828111156200022557825182559160200191906001019062000208565b506200023392915062000237565b5090565b5b8082111562000233576000815560010162000238565b60006020828403121562000260578081fd5b81516001600160a01b038116811462000277578182fd5b9392505050565b600181811c908216806200029357607f821691505b60208210811415620002b557634e487b7160e01b600052602260045260246000fd5b50919050565b61433a80620002cb6000396000f3fe608060405234801561001057600080fd5b50600436106102415760003560e01c806391d1485411610145578063c87b56dd116100bd578063dc98f9d41161008c578063e985e9c511610071578063e985e9c51461053f578063ed94c43c14610588578063ee9a31a21461059b57600080fd5b8063dc98f9d414610519578063de0e9a3e1461052c57600080fd5b8063c87b56dd146104cd578063d547741f146104e0578063d69f2702146104f3578063da4baecb1461050657600080fd5b80639f5e9f6511610114578063a22cb465116100f9578063a22cb46514610494578063b88d4fde146104a7578063c6bd0ff1146104ba57600080fd5b80639f5e9f6514610479578063a217fddf1461048c57600080fd5b806391d148541461040757806395d89b411461044b578063961fde0d1461045357806398ea98f11461046657600080fd5b80632f06e908116101d857806342842e0e116101a75780634f6ccce71161018c5780634f6ccce7146103ce5780636352211e146103e157806370a08231146103f457600080fd5b806342842e0e146103a85780634a0e0a58146103bb57600080fd5b80632f06e9081461035c5780632f2ff15d1461036f5780632f745c591461038257806336568abe1461039557600080fd5b8063150b7a0211610214578063150b7a02146102d057806318160ddd1461031457806323b872dd14610326578063248a9ca31461033957600080fd5b806301ffc9a71461024657806306fdde031461026e578063081812fc14610283578063095ea7b3146102bb575b600080fd5b610259610254366004613e08565b6105c2565b60405190151581526020015b60405180910390f35b610276610702565b60405161026591906140c7565b610296610291366004613dce565b610794565b60405173ffffffffffffffffffffffffffffffffffffffff9091168152602001610265565b6102ce6102c9366004613d34565b610873565b005b6102e36102de366004613bef565b610a00565b6040517fffffffff000000000000000000000000000000000000000000000000000000009091168152602001610265565b6009545b604051908152602001610265565b6102ce610334366004613bb4565b610ba7565b610318610347366004613dce565b60009081526020819052604090206001015490565b6102ce61036a366004613f37565b610c48565b6102ce61037d366004613de6565b610dcc565b610318610390366004613d34565b610df2565b6102ce6103a3366004613de6565b610ec1565b6102ce6103b6366004613bb4565b610f74565b6102596103c9366004613ef2565b610f8f565b6103186103dc366004613dce565b611065565b6102966103ef366004613dce565b61114a565b610318610402366004613b68565b6111fc565b610259610415366004613de6565b60009182526020828152604080842073ffffffffffffffffffffffffffffffffffffffff93909316845291905290205460ff1690565b6102766112ca565b610276610461366004613dce565b6112d9565b6102ce610474366004613ef2565b611458565b610276610487366004613dce565b61170c565b610318600081565b6102ce6104a2366004613cfe565b611831565b6102ce6104b5366004613c85565b61183c565b6103186104c8366004613dce565b6118de565b6102766104db366004613dce565b61197c565b6102ce6104ee366004613de6565b611aad565b6102ce610501366004613eb3565b611ad3565b6102ce610514366004613d5d565b611d5b565b610276610527366004613ef2565b6120a7565b6102ce61053a366004613dce565b6121f4565b61025961054d366004613b82565b73ffffffffffffffffffffffffffffffffffffffff918216600090815260066020908152604080832093909416825291909152205460ff1690565b610259610596366004613eb3565b61245e565b6103187f08fb31c3e81624356c3314088aa971b73bcc82d22bc3e3b184b4593077ae327881565b60007fffffffff0000000000000000000000000000000000000000000000000000000082167f80ac58cd00000000000000000000000000000000000000000000000000000000148061065557507fffffffff0000000000000000000000000000000000000000000000000000000082167f150b7a0200000000000000000000000000000000000000000000000000000000145b806106a157507fffffffff0000000000000000000000000000000000000000000000000000000082167f7965db0b00000000000000000000000000000000000000000000000000000000145b806106ed57507fffffffff0000000000000000000000000000000000000000000000000000000082167f780e9d6300000000000000000000000000000000000000000000000000000000145b806106fc57506106fc82612551565b92915050565b6060600180546107119061423c565b80601f016020809104026020016040519081016040528092919081815260200182805461073d9061423c565b801561078a5780601f1061075f5761010080835404028352916020019161078a565b820191906000526020600020905b81548152906001019060200180831161076d57829003601f168201915b5050505050905090565b60008181526003602052604081205473ffffffffffffffffffffffffffffffffffffffff1661084a576040517f08c379a000000000000000000000000000000000000000000000000000000000815260206004820152602c60248201527f4552433732313a20617070726f76656420717565727920666f72206e6f6e657860448201527f697374656e7420746f6b656e000000000000000000000000000000000000000060648201526084015b60405180910390fd5b5060009081526005602052604090205473ffffffffffffffffffffffffffffffffffffffff1690565b600061087e8261114a565b90508073ffffffffffffffffffffffffffffffffffffffff168373ffffffffffffffffffffffffffffffffffffffff16141561093c576040517f08c379a000000000000000000000000000000000000000000000000000000000815260206004820152602160248201527f4552433732313a20617070726f76616c20746f2063757272656e74206f776e6560448201527f72000000000000000000000000000000000000000000000000000000000000006064820152608401610841565b3373ffffffffffffffffffffffffffffffffffffffff821614806109655750610965813361054d565b6109f1576040517f08c379a000000000000000000000000000000000000000000000000000000000815260206004820152603860248201527f4552433732313a20617070726f76652063616c6c6572206973206e6f74206f7760448201527f6e6572206e6f7220617070726f76656420666f7220616c6c00000000000000006064820152608401610841565b6109fb83836125a7565b505050565b6040805180820182523380825260208083018781528451808301939093525182850152835180830385018152606090920184528151918101919091206000818152600d9092529281205490929060ff161515600114610abb576040517f08c379a000000000000000000000000000000000000000000000000000000000815260206004820152600d60248201527f4e6f742066726f6d2077726170000000000000000000000000000000000000006044820152606401610841565b6000818152600d6020526040902080547fffffffffffffffffffffffffffffffffffffffffffffffffffffffffffffff00169055610afc3388888888612647565b3373ffffffffffffffffffffffffffffffffffffffff168773ffffffffffffffffffffffffffffffffffffffff168973ffffffffffffffffffffffffffffffffffffffff167fa3fd3d60838581a3b458cf45f9029ef2a15adbeac50948c6d428fd3fc2c7956789604051610b7291815260200190565b60405180910390a4507f150b7a0200000000000000000000000000000000000000000000000000000000979650505050505050565b610bb133826126da565b610c3d576040517f08c379a000000000000000000000000000000000000000000000000000000000815260206004820152603160248201527f4552433732313a207472616e736665722063616c6c6572206973206e6f74206f60448201527f776e6572206e6f7220617070726f7665640000000000000000000000000000006064820152608401610841565b6109fb83838361284a565b60008381526003602052604090205473ffffffffffffffffffffffffffffffffffffffff16610cd3576040517f08c379a000000000000000000000000000000000000000000000000000000000815260206004820152601960248201527f506172616d693a206e6f6e6578697374656e7420746f6b656e000000000000006044820152606401610841565b6000838152600e6020526040908190209051610cf0908490613fe1565b908152604051908190036020019020543373ffffffffffffffffffffffffffffffffffffffff90911614610d80576040517f08c379a000000000000000000000000000000000000000000000000000000000815260206004820152601f60248201527f4f6e6c7920617070726f76656420757365722063616e20736574206d657461006044820152606401610841565b80600e600085815260200190815260200160002083604051610da29190613fe1565b90815260200160405180910390206001019080519060200190610dc6929190613a49565b50505050565b600082815260208190526040902060010154610de88133612abc565b6109fb8383612b8c565b6000610dfd836111fc565b8210610e8b576040517f08c379a000000000000000000000000000000000000000000000000000000000815260206004820152602b60248201527f455243373231456e756d657261626c653a206f776e657220696e646578206f7560448201527f74206f6620626f756e64730000000000000000000000000000000000000000006064820152608401610841565b5073ffffffffffffffffffffffffffffffffffffffff919091166000908152600760209081526040808320938352929052205490565b73ffffffffffffffffffffffffffffffffffffffff81163314610f66576040517f08c379a000000000000000000000000000000000000000000000000000000000815260206004820152602f60248201527f416363657373436f6e74726f6c3a2063616e206f6e6c792072656e6f756e636560448201527f20726f6c657320666f722073656c6600000000000000000000000000000000006064820152608401610841565b610f708282612c7c565b5050565b6109fb8383836040518060200160405280600081525061183c565b60008281526003602052604081205473ffffffffffffffffffffffffffffffffffffffff1661101a576040517f08c379a000000000000000000000000000000000000000000000000000000000815260206004820152601960248201527f506172616d693a206e6f6e6578697374656e7420746f6b656e000000000000006044820152606401610841565b6000838152600e60205260408082209051611036908590613fe1565b9081526040519081900360200190205473ffffffffffffffffffffffffffffffffffffffff1614905092915050565b600061107060095490565b82106110fe576040517f08c379a000000000000000000000000000000000000000000000000000000000815260206004820152602c60248201527f455243373231456e756d657261626c653a20676c6f62616c20696e646578206f60448201527f7574206f6620626f756e647300000000000000000000000000000000000000006064820152608401610841565b60098281548110611138577f4e487b7100000000000000000000000000000000000000000000000000000000600052603260045260246000fd5b90600052602060002001549050919050565b60008181526003602052604081205473ffffffffffffffffffffffffffffffffffffffff16806106fc576040517f08c379a000000000000000000000000000000000000000000000000000000000815260206004820152602960248201527f4552433732313a206f776e657220717565727920666f72206e6f6e657869737460448201527f656e7420746f6b656e00000000000000000000000000000000000000000000006064820152608401610841565b600073ffffffffffffffffffffffffffffffffffffffff82166112a1576040517f08c379a000000000000000000000000000000000000000000000000000000000815260206004820152602a60248201527f4552433732313a2062616c616e636520717565727920666f7220746865207a6560448201527f726f2061646472657373000000000000000000000000000000000000000000006064820152608401610841565b5073ffffffffffffffffffffffffffffffffffffffff1660009081526004602052604090205490565b6060600280546107119061423c565b60008181526003602052604090205460609073ffffffffffffffffffffffffffffffffffffffff1661138d576040517f08c379a000000000000000000000000000000000000000000000000000000000815260206004820152603160248201527f45524337323155524953746f726167653a2055524920717565727920666f722060448201527f6e6f6e6578697374656e7420746f6b656e0000000000000000000000000000006064820152608401610841565b6000828152600f60205260408082205481517f06fdde03000000000000000000000000000000000000000000000000000000008152915173ffffffffffffffffffffffffffffffffffffffff909116926306fdde039260048082019391829003018186803b1580156113fe57600080fd5b505afa158015611412573d6000803e3d6000fd5b505050506040513d6000823e601f3d9081017fffffffffffffffffffffffffffffffffffffffffffffffffffffffffffffffe01682016040526106fc9190810190613e40565b60008281526003602052604090205473ffffffffffffffffffffffffffffffffffffffff166114e3576040517f08c379a000000000000000000000000000000000000000000000000000000000815260206004820152601960248201527f506172616d693a206e6f6e6578697374656e7420746f6b656e000000000000006044820152606401610841565b6000828152600e6020526040908190209051611500908390613fe1565b908152604051908190036020019020543373ffffffffffffffffffffffffffffffffffffffff909116146115b6576040517f08c379a000000000000000000000000000000000000000000000000000000000815260206004820152602b60248201527f4f6e6c7920617070726f76656420757365722063616e20756e617070726f766560448201527f416e6444726f704d6574610000000000000000000000000000000000000000006064820152608401610841565b60008281526010602052604090205461162b576040517f08c379a000000000000000000000000000000000000000000000000000000000815260206004820152601160248201527f4d6574614b6579436f756e7420697320300000000000000000000000000000006044820152606401610841565b6000828152600e60205260408082209051611647908490613fe1565b908152604080516020928190038301812080547fffffffffffffffffffffffff00000000000000000000000000000000000000001673ffffffffffffffffffffffffffffffffffffffff959095169490941790935581830181526000808452858152600e9092529081902090516116bf908490613fe1565b908152602001604051809103902060010190805190602001906116e3929190613a49565b5060008281526010602052604081208054600192906117039084906141c4565b90915550505050565b60008181526003602052604090205460609073ffffffffffffffffffffffffffffffffffffffff166117c0576040517f08c379a000000000000000000000000000000000000000000000000000000000815260206004820152603160248201527f45524337323155524953746f726167653a2055524920717565727920666f722060448201527f6e6f6e6578697374656e7420746f6b656e0000000000000000000000000000006064820152608401610841565b6000828152600f60205260408082205481517f95d89b41000000000000000000000000000000000000000000000000000000008152915173ffffffffffffffffffffffffffffffffffffffff909116926395d89b419260048082019391829003018186803b1580156113fe57600080fd5b610f70338383612d33565b61184633836126da565b6118d2576040517f08c379a000000000000000000000000000000000000000000000000000000000815260206004820152603160248201527f4552433732313a207472616e736665722063616c6c6572206973206e6f74206f60448201527f776e6572206e6f7220617070726f7665640000000000000000000000000000006064820152608401610841565b610dc684848484612e61565b60008181526003602052604081205473ffffffffffffffffffffffffffffffffffffffff16611969576040517f08c379a000000000000000000000000000000000000000000000000000000000815260206004820152601960248201527f506172616d693a206e6f6e6578697374656e7420746f6b656e000000000000006044820152606401610841565b5060009081526010602052604090205490565b60008181526003602052604090205460609073ffffffffffffffffffffffffffffffffffffffff16611a30576040517f08c379a000000000000000000000000000000000000000000000000000000000815260206004820152603160248201527f45524337323155524953746f726167653a2055524920717565727920666f722060448201527f6e6f6e6578697374656e7420746f6b656e0000000000000000000000000000006064820152608401610841565b6000828152600f602052604090819020805460019091015491517fc87b56dd000000000000000000000000000000000000000000000000000000008152600481019290925273ffffffffffffffffffffffffffffffffffffffff169063c87b56dd9060240160006040518083038186803b1580156113fe57600080fd5b600082815260208190526040902060010154611ac98133612abc565b6109fb8383612c7c565b611adc8361114a565b73ffffffffffffffffffffffffffffffffffffffff163373ffffffffffffffffffffffffffffffffffffffff1614611b70576040517f08c379a000000000000000000000000000000000000000000000000000000000815260206004820152601660248201527f4f6e6c79206f776e65722063616e20617070726f7665000000000000000000006044820152606401610841565b73ffffffffffffffffffffffffffffffffffffffff8216611bed576040517f08c379a000000000000000000000000000000000000000000000000000000000815260206004820152601660248201527f546f20616464726573732063616e6e6f742062652030000000000000000000006044820152606401610841565b6000838152600e60205260408082209051611c09908490613fe1565b9081526040519081900360200190205473ffffffffffffffffffffffffffffffffffffffff1614611cbc576040517f08c379a000000000000000000000000000000000000000000000000000000000815260206004820152602760248201527f4d6574614b657920697320616c726561647920617070726f76656420746f207360448201527f6f6d65626f6479000000000000000000000000000000000000000000000000006064820152608401610841565b81600e600085815260200190815260200160002082604051611cde9190613fe1565b908152602001604051809103902060000160006101000a81548173ffffffffffffffffffffffffffffffffffffffff021916908373ffffffffffffffffffffffffffffffffffffffff1602179055506001601060008581526020019081526020016000206000828254611d51919061416f565b9091555050505050565b6040517f01ffc9a70000000000000000000000000000000000000000000000000000000081527f80ac58cd00000000000000000000000000000000000000000000000000000000600482015273ffffffffffffffffffffffffffffffffffffffff8416906301ffc9a79060240160206040518083038186803b158015611de057600080fd5b505afa158015611df4573d6000803e3d6000fd5b505050506040513d601f19601f82011682018060405250810190611e189190613db2565b611e7e576040517f08c379a000000000000000000000000000000000000000000000000000000000815260206004820152601360248201527f6e6f7420737570706f72742049455243373231000000000000000000000000006044820152606401610841565b6040517f01ffc9a70000000000000000000000000000000000000000000000000000000081527f5b5e139f00000000000000000000000000000000000000000000000000000000600482015273ffffffffffffffffffffffffffffffffffffffff8416906301ffc9a79060240160206040518083038186803b158015611f0357600080fd5b505afa158015611f17573d6000803e3d6000fd5b505050506040513d601f19601f82011682018060405250810190611f3b9190613db2565b611fa1576040517f08c379a000000000000000000000000000000000000000000000000000000000815260206004820152601b60248201527f6e6f7420737570706f727420494552433732314d6574616461746100000000006044820152606401610841565b60408051808201825273ffffffffffffffffffffffffffffffffffffffff8516808252602080830186815284518083018490529051818601528451808203860181526060820186528051908301206000908152600d90925293902080547fffffffffffffffffffffffffffffffffffffffffffffffffffffffffffffff00166001179055909163b88d4fde903390309087906120419088906080016140c7565b6040516020818303038152906040526040518563ffffffff1660e01b815260040161206f949392919061407e565b600060405180830381600087803b15801561208957600080fd5b505af115801561209d573d6000803e3d6000fd5b5050505050505050565b60008281526003602052604090205460609073ffffffffffffffffffffffffffffffffffffffff16612135576040517f08c379a000000000000000000000000000000000000000000000000000000000815260206004820152601960248201527f506172616d693a206e6f6e6578697374656e7420746f6b656e000000000000006044820152606401610841565b6000838152600e6020526040908190209051612152908490613fe1565b9081526020016040518091039020600101805461216e9061423c565b80601f016020809104026020016040519081016040528092919081815260200182805461219a9061423c565b80156121e75780601f106121bc576101008083540402835291602001916121e7565b820191906000526020600020905b8154815290600101906020018083116121ca57829003601f168201915b5050505050905092915050565b6121fd8161114a565b73ffffffffffffffffffffffffffffffffffffffff163373ffffffffffffffffffffffffffffffffffffffff16146122b7576040517f08c379a000000000000000000000000000000000000000000000000000000000815260206004820152602360248201527f596f7520617265206e6f7420746865206f776e6572206f66207468697320746f60448201527f6b656e00000000000000000000000000000000000000000000000000000000006064820152608401610841565b6000818152601060205260409020541561232d576040517f08c379a000000000000000000000000000000000000000000000000000000000815260206004820152601760248201527f4d657461206b65797320617265206e6f7420656d7074790000000000000000006044820152606401610841565b6000818152600f602052604090205473ffffffffffffffffffffffffffffffffffffffff166123b8576040517f08c379a000000000000000000000000000000000000000000000000000000000815260206004820152601960248201527f5468697320746f6b656e206973206e6f742077726170706564000000000000006044820152606401610841565b6000818152600f602052604090819020805460019091015491517f42842e0e000000000000000000000000000000000000000000000000000000008152306004820152336024820152604481019290925273ffffffffffffffffffffffffffffffffffffffff16906342842e0e90606401600060405180830381600087803b15801561244357600080fd5b505af1158015612457573d6000803e3d6000fd5b5050505050565b60008381526003602052604081205473ffffffffffffffffffffffffffffffffffffffff166124e9576040517f08c379a000000000000000000000000000000000000000000000000000000000815260206004820152601960248201527f506172616d693a206e6f6e6578697374656e7420746f6b656e000000000000006044820152606401610841565b8273ffffffffffffffffffffffffffffffffffffffff16600e6000868152602001908152602001600020836040516125219190613fe1565b9081526040519081900360200190205473ffffffffffffffffffffffffffffffffffffffff161490509392505050565b60007fffffffff0000000000000000000000000000000000000000000000000000000082167f780e9d630000000000000000000000000000000000000000000000000000000014806106fc57506106fc82612f04565b600081815260056020526040902080547fffffffffffffffffffffffff00000000000000000000000000000000000000001673ffffffffffffffffffffffffffffffffffffffff841690811790915581906126018261114a565b73ffffffffffffffffffffffffffffffffffffffff167f8c5be1e5ebec7d5bd14f71427d1e84f3dd0314c0f7b2291e5b200ac8c7c3b92560405160405180910390a45050565b612655600b80546001019055565b6000612660600b5490565b905061266c8582612fa6565b6000908152600f6020908152604080832080547fffffffffffffffffffffffff00000000000000000000000000000000000000001673ffffffffffffffffffffffffffffffffffffffff99909916989098178855600190970194909455601090935250509182209190915550565b60008181526003602052604081205473ffffffffffffffffffffffffffffffffffffffff1661278b576040517f08c379a000000000000000000000000000000000000000000000000000000000815260206004820152602c60248201527f4552433732313a206f70657261746f7220717565727920666f72206e6f6e657860448201527f697374656e7420746f6b656e00000000000000000000000000000000000000006064820152608401610841565b60006127968361114a565b90508073ffffffffffffffffffffffffffffffffffffffff168473ffffffffffffffffffffffffffffffffffffffff16148061280557508373ffffffffffffffffffffffffffffffffffffffff166127ed84610794565b73ffffffffffffffffffffffffffffffffffffffff16145b80612842575073ffffffffffffffffffffffffffffffffffffffff80821660009081526006602090815260408083209388168352929052205460ff165b949350505050565b8273ffffffffffffffffffffffffffffffffffffffff1661286a8261114a565b73ffffffffffffffffffffffffffffffffffffffff161461290d576040517f08c379a000000000000000000000000000000000000000000000000000000000815260206004820152602560248201527f4552433732313a207472616e736665722066726f6d20696e636f72726563742060448201527f6f776e65720000000000000000000000000000000000000000000000000000006064820152608401610841565b73ffffffffffffffffffffffffffffffffffffffff82166129af576040517f08c379a0000000000000000000000000000000000000000000000000000000008152602060048201526024808201527f4552433732313a207472616e7366657220746f20746865207a65726f2061646460448201527f72657373000000000000000000000000000000000000000000000000000000006064820152608401610841565b6129ba838383613174565b6129c56000826125a7565b73ffffffffffffffffffffffffffffffffffffffff831660009081526004602052604081208054600192906129fb9084906141c4565b909155505073ffffffffffffffffffffffffffffffffffffffff82166000908152600460205260408120805460019290612a3690849061416f565b909155505060008181526003602052604080822080547fffffffffffffffffffffffff00000000000000000000000000000000000000001673ffffffffffffffffffffffffffffffffffffffff86811691821790925591518493918716917fddf252ad1be2c89b69c2b068fc378daa952ba7f163c4a11628f55a4df523b3ef91a4505050565b60008281526020818152604080832073ffffffffffffffffffffffffffffffffffffffff8516845290915290205460ff16610f7057612b128173ffffffffffffffffffffffffffffffffffffffff16601461327a565b612b1d83602061327a565b604051602001612b2e929190613ffd565b604080517fffffffffffffffffffffffffffffffffffffffffffffffffffffffffffffffe0818403018152908290527f08c379a0000000000000000000000000000000000000000000000000000000008252610841916004016140c7565b60008281526020818152604080832073ffffffffffffffffffffffffffffffffffffffff8516845290915290205460ff16610f705760008281526020818152604080832073ffffffffffffffffffffffffffffffffffffffff85168452909152902080547fffffffffffffffffffffffffffffffffffffffffffffffffffffffffffffff00166001179055612c1e3390565b73ffffffffffffffffffffffffffffffffffffffff168173ffffffffffffffffffffffffffffffffffffffff16837f2f8788117e7eff1d82e926ec794901d17c78024a50270940304540a733656f0d60405160405180910390a45050565b60008281526020818152604080832073ffffffffffffffffffffffffffffffffffffffff8516845290915290205460ff1615610f705760008281526020818152604080832073ffffffffffffffffffffffffffffffffffffffff8516808552925280832080547fffffffffffffffffffffffffffffffffffffffffffffffffffffffffffffff0016905551339285917ff6391f5c32d9c69d2a47ea670b442974b53935d1edc7fd64eb21e047a839171b9190a45050565b8173ffffffffffffffffffffffffffffffffffffffff168373ffffffffffffffffffffffffffffffffffffffff161415612dc9576040517f08c379a000000000000000000000000000000000000000000000000000000000815260206004820152601960248201527f4552433732313a20617070726f766520746f2063616c6c6572000000000000006044820152606401610841565b73ffffffffffffffffffffffffffffffffffffffff83811660008181526006602090815260408083209487168084529482529182902080547fffffffffffffffffffffffffffffffffffffffffffffffffffffffffffffff001686151590811790915591519182527f17307eab39ab6107e8899845ad3d59bd9653f200f220920489ca2b5937696c31910160405180910390a3505050565b612e6c84848461284a565b612e7884848484613587565b610dc6576040517f08c379a000000000000000000000000000000000000000000000000000000000815260206004820152603260248201527f4552433732313a207472616e7366657220746f206e6f6e20455243373231526560448201527f63656976657220696d706c656d656e74657200000000000000000000000000006064820152608401610841565b60007fffffffff0000000000000000000000000000000000000000000000000000000082167f80ac58cd000000000000000000000000000000000000000000000000000000001480612f9757507fffffffff0000000000000000000000000000000000000000000000000000000082167f5b5e139f00000000000000000000000000000000000000000000000000000000145b806106fc57506106fc82613786565b73ffffffffffffffffffffffffffffffffffffffff8216613023576040517f08c379a000000000000000000000000000000000000000000000000000000000815260206004820181905260248201527f4552433732313a206d696e7420746f20746865207a65726f20616464726573736044820152606401610841565b60008181526003602052604090205473ffffffffffffffffffffffffffffffffffffffff16156130af576040517f08c379a000000000000000000000000000000000000000000000000000000000815260206004820152601c60248201527f4552433732313a20746f6b656e20616c7265616479206d696e746564000000006044820152606401610841565b6130bb60008383613174565b73ffffffffffffffffffffffffffffffffffffffff821660009081526004602052604081208054600192906130f190849061416f565b909155505060008181526003602052604080822080547fffffffffffffffffffffffff00000000000000000000000000000000000000001673ffffffffffffffffffffffffffffffffffffffff861690811790915590518392907fddf252ad1be2c89b69c2b068fc378daa952ba7f163c4a11628f55a4df523b3ef908290a45050565b73ffffffffffffffffffffffffffffffffffffffff83166131dc576131d781600980546000838152600a60205260408120829055600182018355919091527f6e1540171b6c0c960b71a7020d9f60077f6af931a8bbf590da0223dacf75c7af0155565b613219565b8173ffffffffffffffffffffffffffffffffffffffff168373ffffffffffffffffffffffffffffffffffffffff161461321957613219838261381d565b73ffffffffffffffffffffffffffffffffffffffff821661323d576109fb816138d4565b8273ffffffffffffffffffffffffffffffffffffffff168273ffffffffffffffffffffffffffffffffffffffff16146109fb576109fb82826139f8565b60606000613289836002614187565b61329490600261416f565b67ffffffffffffffff8111156132d3577f4e487b7100000000000000000000000000000000000000000000000000000000600052604160045260246000fd5b6040519080825280601f01601f1916602001820160405280156132fd576020820181803683370190505b5090507f30000000000000000000000000000000000000000000000000000000000000008160008151811061335b577f4e487b7100000000000000000000000000000000000000000000000000000000600052603260045260246000fd5b60200101907effffffffffffffffffffffffffffffffffffffffffffffffffffffffffffff1916908160001a9053507f7800000000000000000000000000000000000000000000000000000000000000816001815181106133e5577f4e487b7100000000000000000000000000000000000000000000000000000000600052603260045260246000fd5b60200101907effffffffffffffffffffffffffffffffffffffffffffffffffffffffffffff1916908160001a9053506000613421846002614187565b61342c90600161416f565b90505b6001811115613517577f303132333435363738396162636465660000000000000000000000000000000085600f1660108110613494577f4e487b7100000000000000000000000000000000000000000000000000000000600052603260045260246000fd5b1a60f81b8282815181106134d1577f4e487b7100000000000000000000000000000000000000000000000000000000600052603260045260246000fd5b60200101907effffffffffffffffffffffffffffffffffffffffffffffffffffffffffffff1916908160001a90535060049490941c9361351081614207565b905061342f565b508315613580576040517f08c379a000000000000000000000000000000000000000000000000000000000815260206004820181905260248201527f537472696e67733a20686578206c656e67746820696e73756666696369656e746044820152606401610841565b9392505050565b600073ffffffffffffffffffffffffffffffffffffffff84163b1561377b576040517f150b7a0200000000000000000000000000000000000000000000000000000000815273ffffffffffffffffffffffffffffffffffffffff85169063150b7a02906135fe90339089908890889060040161407e565b602060405180830381600087803b15801561361857600080fd5b505af1925050508015613666575060408051601f3d9081017fffffffffffffffffffffffffffffffffffffffffffffffffffffffffffffffe016820190925261366391810190613e24565b60015b613730573d808015613694576040519150601f19603f3d011682016040523d82523d6000602084013e613699565b606091505b508051613728576040517f08c379a000000000000000000000000000000000000000000000000000000000815260206004820152603260248201527f4552433732313a207472616e7366657220746f206e6f6e20455243373231526560448201527f63656976657220696d706c656d656e74657200000000000000000000000000006064820152608401610841565b805181602001fd5b7fffffffff00000000000000000000000000000000000000000000000000000000167f150b7a0200000000000000000000000000000000000000000000000000000000149050612842565b506001949350505050565b60007fffffffff0000000000000000000000000000000000000000000000000000000082167f7965db0b0000000000000000000000000000000000000000000000000000000014806106fc57507f01ffc9a7000000000000000000000000000000000000000000000000000000007fffffffff000000000000000000000000000000000000000000000000000000008316146106fc565b6000600161382a846111fc565b61383491906141c4565b6000838152600860205260409020549091508082146138945773ffffffffffffffffffffffffffffffffffffffff841660009081526007602090815260408083208584528252808320548484528184208190558352600890915290208190555b50600091825260086020908152604080842084905573ffffffffffffffffffffffffffffffffffffffff9094168352600781528383209183525290812055565b6009546000906138e6906001906141c4565b6000838152600a602052604081205460098054939450909284908110613935577f4e487b7100000000000000000000000000000000000000000000000000000000600052603260045260246000fd5b90600052602060002001549050806009838154811061397d577f4e487b7100000000000000000000000000000000000000000000000000000000600052603260045260246000fd5b6000918252602080832090910192909255828152600a909152604080822084905585825281205560098054806139dc577f4e487b7100000000000000000000000000000000000000000000000000000000600052603160045260246000fd5b6001900381819060005260206000200160009055905550505050565b6000613a03836111fc565b73ffffffffffffffffffffffffffffffffffffffff9093166000908152600760209081526040808320868452825280832085905593825260089052919091209190915550565b828054613a559061423c565b90600052602060002090601f016020900481019282613a775760008555613abd565b82601f10613a9057805160ff1916838001178555613abd565b82800160010185558215613abd579182015b82811115613abd578251825591602001919060010190613aa2565b50613ac9929150613acd565b5090565b5b80821115613ac95760008155600101613ace565b6000613af5613af084614129565b6140da565b9050828152838383011115613b0957600080fd5b828260208301376000602084830101529392505050565b803573ffffffffffffffffffffffffffffffffffffffff81168114613b4457600080fd5b919050565b600082601f830112613b59578081fd5b61358083833560208501613ae2565b600060208284031215613b79578081fd5b61358082613b20565b60008060408385031215613b94578081fd5b613b9d83613b20565b9150613bab60208401613b20565b90509250929050565b600080600060608486031215613bc8578081fd5b613bd184613b20565b9250613bdf60208501613b20565b9150604084013590509250925092565b600080600080600060808688031215613c06578081fd5b613c0f86613b20565b9450613c1d60208701613b20565b935060408601359250606086013567ffffffffffffffff80821115613c40578283fd5b818801915088601f830112613c53578283fd5b813581811115613c61578384fd5b896020828501011115613c72578384fd5b9699959850939650602001949392505050565b60008060008060808587031215613c9a578384fd5b613ca385613b20565b9350613cb160208601613b20565b925060408501359150606085013567ffffffffffffffff811115613cd3578182fd5b8501601f81018713613ce3578182fd5b613cf287823560208401613ae2565b91505092959194509250565b60008060408385031215613d10578182fd5b613d1983613b20565b91506020830135613d29816142ee565b809150509250929050565b60008060408385031215613d46578182fd5b613d4f83613b20565b946020939093013593505050565b600080600060608486031215613d71578283fd5b613d7a84613b20565b925060208401359150604084013567ffffffffffffffff811115613d9c578182fd5b613da886828701613b49565b9150509250925092565b600060208284031215613dc3578081fd5b8151613580816142ee565b600060208284031215613ddf578081fd5b5035919050565b60008060408385031215613df8578182fd5b82359150613bab60208401613b20565b600060208284031215613e19578081fd5b8135613580816142ff565b600060208284031215613e35578081fd5b8151613580816142ff565b600060208284031215613e51578081fd5b815167ffffffffffffffff811115613e67578182fd5b8201601f81018413613e77578182fd5b8051613e85613af082614129565b818152856020838501011115613e99578384fd5b613eaa8260208301602086016141db565b95945050505050565b600080600060608486031215613ec7578081fd5b83359250613ed760208501613b20565b9150604084013567ffffffffffffffff811115613d9c578182fd5b60008060408385031215613f04578182fd5b82359150602083013567ffffffffffffffff811115613f21578182fd5b613f2d85828601613b49565b9150509250929050565b600080600060608486031215613f4b578081fd5b83359250602084013567ffffffffffffffff80821115613f69578283fd5b613f7587838801613b49565b93506040860135915080821115613f8a578283fd5b50613da886828701613b49565b60008151808452613faf8160208601602086016141db565b601f017fffffffffffffffffffffffffffffffffffffffffffffffffffffffffffffffe0169290920160200192915050565b60008251613ff38184602087016141db565b9190910192915050565b7f416363657373436f6e74726f6c3a206163636f756e74200000000000000000008152600083516140358160178501602088016141db565b7f206973206d697373696e6720726f6c652000000000000000000000000000000060179184019182015283516140728160288401602088016141db565b01602801949350505050565b600073ffffffffffffffffffffffffffffffffffffffff8087168352808616602084015250836040830152608060608301526140bd6080830184613f97565b9695505050505050565b6020815260006135806020830184613f97565b604051601f82017fffffffffffffffffffffffffffffffffffffffffffffffffffffffffffffffe016810167ffffffffffffffff81118282101715614121576141216142bf565b604052919050565b600067ffffffffffffffff821115614143576141436142bf565b50601f017fffffffffffffffffffffffffffffffffffffffffffffffffffffffffffffffe01660200190565b6000821982111561418257614182614290565b500190565b6000817fffffffffffffffffffffffffffffffffffffffffffffffffffffffffffffffff04831182151516156141bf576141bf614290565b500290565b6000828210156141d6576141d6614290565b500390565b60005b838110156141f65781810151838201526020016141de565b83811115610dc65750506000910152565b60008161421657614216614290565b507fffffffffffffffffffffffffffffffffffffffffffffffffffffffffffffffff0190565b600181811c9082168061425057607f821691505b6020821081141561428a577f4e487b7100000000000000000000000000000000000000000000000000000000600052602260045260246000fd5b50919050565b7f4e487b7100000000000000000000000000000000000000000000000000000000600052601160045260246000fd5b7f4e487b7100000000000000000000000000000000000000000000000000000000600052604160045260246000fd5b80151581146142fc57600080fd5b50565b7fffffffff00000000000000000000000000000000000000000000000000000000811681146142fc57600080fdfea164736f6c6343000804000a",
  "linkReferences": {},
  "deployedLinkReferences": {}
}