{
  "_format": "hh-sol-artifact-1",
  "contractName": "ERC721HCollection",
  "sourceName": "contracts/ERC721HCollection.sol",
  "abi": [
    {
      "inputs": [],
      "stateMutability": "nonpayable",
      "type": "constructor"
    },
    {
      "anonymous": false,
      "inputs": [
        {
          "indexed": true,
          "internalType": "address",
          "name": "owner",
          "type": "address"
        },
        {
          "indexed": true,
          "internalType": "address",
          "name": "approved",
          "type": "address"
        },
        {
          "indexed": true,
          "internalType": "uint256",
          "name": "tokenId",
          "type": "uint256"
        }
      ],
      "name": "Approval",
      "type": "event"
    },
    {
      "anonymous": false,
      "inputs": [
        {
          "indexed": true,
          "internalType": "address",
          "name": "owner",
          "type": "address"
        },
        {
          "indexed": true,
          "internalType": "address",
          "name": "operator",
          "type": "address"
        },
        {
          "indexed": false,
          "internalType": "bool",
          "name": "approved",
          "type": "bool"
        }
      ],
      "name": "ApprovalForAll",
      "type": "event"
    },
    {
      "anonymous": false,
      "inputs": [
        {
          "indexed": true,
          "internalType": "address",
          "name": "previousOwner",
          "type": "address"
        },
        {
          "indexed": true,
          "internalType": "address",
          "name": "newOwner",
          "type": "address"
        }
      ],
      "name": "OwnershipTransferred",
      "type": "event"
    },
    {
      "anonymous": false,
      "inputs": [
        {
          "indexed": false,
          "internalType": "uint256",
          "name": "tokenId",
          "type": "uint256"
        },
        {
          "indexed": false,
          "internalType": "address",
          "name": "slotManagerAddr",
          "type": "address"
        }
      ],
      "name": "SlotAuthorizationCreated",
      "type": "event"
    },
    {
      "anonymous": false,
      "inputs": [
        {
          "indexed": false,
          "internalType": "uint256",
          "name": "tokenId",
          "type": "uint256"
        },
        {
          "indexed": false,
          "internalType": "address",
          "name": "slotManagerAddr",
          "type": "address"
        }
      ],
      "name": "SlotAuthorizationRevoked",
      "type": "event"
    },
    {
      "anonymous": false,
      "inputs": [
        {
          "indexed": false,
          "internalType": "uint256",
          "name": "tokenId",
          "type": "uint256"
        },
        {
          "indexed": false,
          "internalType": "address",
          "name": "slotManagerAddr",
          "type": "address"
        },
        {
          "indexed": false,
          "internalType": "string",
          "name": "uri",
          "type": "string"
        }
      ],
      "name": "SlotUriUpdated",
      "type": "event"
    },
    {
      "anonymous": false,
      "inputs": [
        {
          "indexed": true,
          "internalType": "address",
          "name": "from",
          "type": "address"
        },
        {
          "indexed": true,
          "internalType": "address",
          "name": "to",
          "type": "address"
        },
        {
          "indexed": true,
          "internalType": "uint256",
          "name": "tokenId",
          "type": "uint256"
        }
      ],
      "name": "Transfer",
      "type": "event"
    },
    {
      "inputs": [
        {
          "internalType": "address",
          "name": "to",
          "type": "address"
        },
        {
          "internalType": "uint256",
          "name": "tokenId",
          "type": "uint256"
        }
      ],
      "name": "approve",
      "outputs": [],
      "stateMutability": "nonpayable",
      "type": "function"
    },
    {
      "inputs": [
        {
          "internalType": "uint256",
          "name": "tokenId",
          "type": "uint256"
        },
        {
          "internalType": "address",
          "name": "slotManagerAddr",
          "type": "address"
        }
      ],
      "name": "authorizeSlotTo",
      "outputs": [],
      "stateMutability": "nonpayable",
      "type": "function"
    },
    {
      "inputs": [
        {
          "internalType": "uint256",
          "name": "tokenId",
          "type": "uint256"
        },
        {
          "internalType": "address",
          "name": "slotManagerAddr",
          "type": "address"
        },
        {
          "internalType": "string",
          "name": "initValue",
          "type": "string"
        }
      ],
      "name": "authorizeSlotToWithValue",
      "outputs": [],
      "stateMutability": "nonpayable",
      "type": "function"
    },
    {
      "inputs": [
        {
          "internalType": "address",
          "name": "owner",
          "type": "address"
        }
      ],
      "name": "balanceOf",
      "outputs": [
        {
          "internalType": "uint256",
          "name": "",
          "type": "uint256"
        }
      ],
      "stateMutability": "view",
      "type": "function"
    },
    {
      "inputs": [
        {
          "internalType": "uint256",
          "name": "tokenId",
          "type": "uint256"
        }
      ],
      "name": "getApproved",
      "outputs": [
        {
          "internalType": "address",
          "name": "",
          "type": "address"
        }
      ],
      "stateMutability": "view",
      "type": "function"
    },
    {
      "inputs": [
        {
          "internalType": "uint256",
          "name": "tokenId",
          "type": "uint256"
        }
      ],
      "name": "getSlotManagers",
      "outputs": [
        {
          "internalType": "address[]",
          "name": "",
          "type": "address[]"
        }
      ],
      "stateMutability": "view",
      "type": "function"
    },
    {
      "inputs": [
        {
          "internalType": "uint256",
          "name": "tokenId",
          "type": "uint256"
        },
        {
          "internalType": "address",
          "name": "slotManagerAddr",
          "type": "address"
        }
      ],
      "name": "getSlotUri",
      "outputs": [
        {
          "internalType": "string",
          "name": "",
          "type": "string"
        }
      ],
      "stateMutability": "view",
      "type": "function"
    },
    {
      "inputs": [
        {
          "internalType": "address",
          "name": "owner",
          "type": "address"
        },
        {
          "internalType": "address",
          "name": "operator",
          "type": "address"
        }
      ],
      "name": "isApprovedForAll",
      "outputs": [
        {
          "internalType": "bool",
          "name": "",
          "type": "bool"
        }
      ],
      "stateMutability": "view",
      "type": "function"
    },
    {
      "inputs": [
        {
          "internalType": "uint256",
          "name": "tokenId",
          "type": "uint256"
        },
        {
          "internalType": "address",
          "name": "addr",
          "type": "address"
        }
      ],
      "name": "isSlotManager",
      "outputs": [
        {
          "internalType": "bool",
          "name": "",
          "type": "bool"
        }
      ],
      "stateMutability": "view",
      "type": "function"
    },
    {
      "inputs": [
        {
          "internalType": "string",
          "name": "imageUri",
          "type": "string"
        }
      ],
      "name": "mint",
      "outputs": [],
      "stateMutability": "nonpayable",
      "type": "function"
    },
    {
      "inputs": [
        {
          "internalType": "string",
          "name": "imageUri",
          "type": "string"
        },
        {
          "internalType": "address",
          "name": "slotManagerAddr",
          "type": "address"
        }
      ],
      "name": "mintAndAuthorizeTo",
      "outputs": [],
      "stateMutability": "nonpayable",
      "type": "function"
    },
    {
      "inputs": [],
      "name": "name",
      "outputs": [
        {
          "internalType": "string",
          "name": "",
          "type": "string"
        }
      ],
      "stateMutability": "view",
      "type": "function"
    },
    {
      "inputs": [],
      "name": "owner",
      "outputs": [
        {
          "internalType": "address",
          "name": "",
          "type": "address"
        }
      ],
      "stateMutability": "view",
      "type": "function"
    },
    {
      "inputs": [
        {
          "internalType": "uint256",
          "name": "tokenId",
          "type": "uint256"
        }
      ],
      "name": "ownerOf",
      "outputs": [
        {
          "internalType": "address",
          "name": "",
          "type": "address"
        }
      ],
      "stateMutability": "view",
      "type": "function"
    },
    {
      "inputs": [],
      "name": "renounceOwnership",
      "outputs": [],
      "stateMutability": "nonpayable",
      "type": "function"
    },
    {
      "inputs": [
        {
          "internalType": "uint256",
          "name": "tokenId",
          "type": "uint256"
        }
      ],
      "name": "revokeAllAuthorizations",
      "outputs": [],
      "stateMutability": "nonpayable",
      "type": "function"
    },
    {
      "inputs": [
        {
          "internalType": "uint256",
          "name": "tokenId",
          "type": "uint256"
        },
        {
          "internalType": "address",
          "name": "slotManagerAddr",
          "type": "address"
        }
      ],
      "name": "revokeAuthorization",
      "outputs": [],
      "stateMutability": "nonpayable",
      "type": "function"
    },
    {
      "inputs": [
        {
          "internalType": "address",
          "name": "from",
          "type": "address"
        },
        {
          "internalType": "address",
          "name": "to",
          "type": "address"
        },
        {
          "internalType": "uint256",
          "name": "tokenId",
          "type": "uint256"
        }
      ],
      "name": "safeTransferFrom",
      "outputs": [],
      "stateMutability": "nonpayable",
      "type": "function"
    },
    {
      "inputs": [
        {
          "internalType": "address",
          "name": "from",
          "type": "address"
        },
        {
          "internalType": "address",
          "name": "to",
          "type": "address"
        },
        {
          "internalType": "uint256",
          "name": "tokenId",
          "type": "uint256"
        },
        {
          "internalType": "bytes",
          "name": "_data",
          "type": "bytes"
        }
      ],
      "name": "safeTransferFrom",
      "outputs": [],
      "stateMutability": "nonpayable",
      "type": "function"
    },
    {
      "inputs": [
        {
          "internalType": "address",
          "name": "operator",
          "type": "address"
        },
        {
          "internalType": "bool",
          "name": "approved",
          "type": "bool"
        }
      ],
      "name": "setApprovalForAll",
      "outputs": [],
      "stateMutability": "nonpayable",
      "type": "function"
    },
    {
      "inputs": [
        {
          "internalType": "uint256",
          "name": "tokenId",
          "type": "uint256"
        },
        {
          "internalType": "string",
          "name": "uri",
          "type": "string"
        }
      ],
      "name": "setImageURI",
      "outputs": [],
      "stateMutability": "nonpayable",
      "type": "function"
    },
    {
      "inputs": [
        {
          "internalType": "uint256",
          "name": "tokenId",
          "type": "uint256"
        },
        {
          "internalType": "string",
          "name": "value",
          "type": "string"
        }
      ],
      "name": "setSlotUri",
      "outputs": [],
      "stateMutability": "nonpayable",
      "type": "function"
    },
    {
      "inputs": [
        {
          "internalType": "bytes4",
          "name": "interfaceId",
          "type": "bytes4"
        }
      ],
      "name": "supportsInterface",
      "outputs": [
        {
          "internalType": "bool",
          "name": "",
          "type": "bool"
        }
      ],
      "stateMutability": "view",
      "type": "function"
    },
    {
      "inputs": [],
      "name": "symbol",
      "outputs": [
        {
          "internalType": "string",
          "name": "",
          "type": "string"
        }
      ],
      "stateMutability": "view",
      "type": "function"
    },
    {
      "inputs": [
        {
          "internalType": "uint256",
          "name": "index",
          "type": "uint256"
        }
      ],
      "name": "tokenByIndex",
      "outputs": [
        {
          "internalType": "uint256",
          "name": "",
          "type": "uint256"
        }
      ],
      "stateMutability": "view",
      "type": "function"
    },
    {
      "inputs": [
        {
          "internalType": "address",
          "name": "owner",
          "type": "address"
        },
        {
          "internalType": "uint256",
          "name": "index",
          "type": "uint256"
        }
      ],
      "name": "tokenOfOwnerByIndex",
      "outputs": [
        {
          "internalType": "uint256",
          "name": "",
          "type": "uint256"
        }
      ],
      "stateMutability": "view",
      "type": "function"
    },
    {
      "inputs": [
        {
          "internalType": "uint256",
          "name": "_tokenId",
          "type": "uint256"
        }
      ],
      "name": "tokenURI",
      "outputs": [
        {
          "internalType": "string",
          "name": "",
          "type": "string"
        }
      ],
      "stateMutability": "view",
      "type": "function"
    },
    {
      "inputs": [],
      "name": "totalSupply",
      "outputs": [
        {
          "internalType": "uint256",
          "name": "",
          "type": "uint256"
        }
      ],
      "stateMutability": "view",
      "type": "function"
    },
    {
      "inputs": [
        {
          "internalType": "address",
          "name": "from",
          "type": "address"
        },
        {
          "internalType": "address",
          "name": "to",
          "type": "address"
        },
        {
          "internalType": "uint256",
          "name": "tokenId",
          "type": "uint256"
        }
      ],
      "name": "transferFrom",
      "outputs": [],
      "stateMutability": "nonpayable",
      "type": "function"
    },
    {
      "inputs": [
        {
          "internalType": "address",
          "name": "newOwner",
          "type": "address"
        }
      ],
      "name": "transferOwnership",
      "outputs": [],
      "stateMutability": "nonpayable",
      "type": "function"
    }
  ],
  "bytecode": "0x60806040523480156200001157600080fd5b50604080518082018252601881527f48797065726c696e6b204e465420436f6c6c656374696f6e00000000000000006020808301918252835180850190945260048452631213919560e21b908401528151919291620000739160009162000102565b5080516200008990600190602084019062000102565b505050620000a6620000a0620000ac60201b60201c565b620000b0565b620001e5565b3390565b600a80546001600160a01b038381166001600160a01b0319831681179093556040519116919082907f8be0079c531659141344cd1fd0a4f28419497f9722a3daafe3b4186f6b6457e090600090a35050565b8280546200011090620001a8565b90600052602060002090601f0160209004810192826200013457600085556200017f565b82601f106200014f57805160ff19168380011785556200017f565b828001600101855582156200017f579182015b828111156200017f57825182559160200191906001019062000162565b506200018d92915062000191565b5090565b5b808211156200018d576000815560010162000192565b600181811c90821680620001bd57607f821691505b60208210811415620001df57634e487b7160e01b600052602260045260246000fd5b50919050565b613b0b80620001f56000396000f3fe608060405234801561001057600080fd5b50600436106101da5760003560e01c8063715018a611610104578063c87b56dd116100a2578063d85d3d2711610071578063d85d3d271461040c578063e985e9c51461041f578063ec9fca0c14610468578063f2fde38b1461047b57600080fd5b8063c87b56dd146103c0578063cf367f84146103d3578063cfc3ac92146103e6578063d0ade91b146103f957600080fd5b806395d89b41116100de57806395d89b411461037f578063a22cb46514610387578063b88d4fde1461039a578063c3612ef7146103ad57600080fd5b8063715018a614610339578063715dbaf2146103415780638da5cb5b1461036157600080fd5b806323b872dd1161017c578063543e41c91161014b578063543e41c9146102ed5780635e91d077146103005780636352211e1461031357806370a082311461032657600080fd5b806323b872dd146102a15780632f745c59146102b457806342842e0e146102c75780634f6ccce7146102da57600080fd5b80630754b2cc116101b85780630754b2cc14610231578063081812fc14610244578063095ea7b31461027c57806318160ddd1461028f57600080fd5b806301ffc9a7146101df578063029624e01461020757806306fdde031461021c575b600080fd5b6101f26101ed3660046132b7565b61048e565b60405190151581526020015b60405180910390f35b61021a610215366004613413565b6104ea565b005b6102246105ad565b6040516101fe91906137fd565b61022461023f366004613399565b61063f565b610257610252366004613381565b610703565b60405173ffffffffffffffffffffffffffffffffffffffff90911681526020016101fe565b61021a61028a36600461328e565b6107dd565b6008545b6040519081526020016101fe565b61021a6102af366004613126565b61096a565b6102936102c236600461328e565b610a0b565b61021a6102d5366004613126565b610ada565b6102936102e8366004613381565b610af5565b61021a6102fb366004613381565b610bda565b61021a61030e3660046133bb565b610e51565b610257610321366004613381565b610f78565b6102936103343660046130da565b61102a565b61021a6110f8565b61035461034f366004613381565b611185565b6040516101fe91906137a3565b600a5473ffffffffffffffffffffffffffffffffffffffff16610257565b61022461119f565b61021a610395366004613254565b6111ae565b61021a6103a8366004613161565b6111b9565b61021a6103bb366004613399565b611261565b6102246103ce366004613381565b61139b565b6101f26103e1366004613399565b6114ca565b61021a6103f4366004613399565b6114e9565b61021a610407366004613413565b611591565b61021a61041a3660046132ef565b6116b5565b6101f261042d3660046130f4565b73ffffffffffffffffffffffffffffffffffffffff918216600090815260056020908152604080832093909416825291909152205460ff1690565b61021a61047636600461332f565b6116d8565b61021a6104893660046130da565b611705565b60007fffffffff0000000000000000000000000000000000000000000000000000000082167f8f65987b0000000000000000000000000000000000000000000000000000000014806104e457506104e482611835565b92915050565b826104f481610f78565b73ffffffffffffffffffffffffffffffffffffffff163373ffffffffffffffffffffffffffffffffffffffff161461058d576040517f08c379a000000000000000000000000000000000000000000000000000000000815260206004820152601960248201527f73686f756c642062652074686520746f6b656e206f776e65720000000000000060448201526064015b60405180910390fd5b6000848152600d602052604090206105a6908484612f7d565b5050505050565b6060600080546105bc90613962565b80601f01602080910402602001604051908101604052809291908181526020018280546105e890613962565b80156106355780601f1061060a57610100808354040283529160200191610635565b820191906000526020600020905b81548152906001019060200180831161061857829003601f168201915b5050505050905090565b6000828152600c6020908152604080832073ffffffffffffffffffffffffffffffffffffffff85168452909152902080546060919061067d90613962565b80601f01602080910402602001604051908101604052809291908181526020018280546106a990613962565b80156106f65780601f106106cb576101008083540402835291602001916106f6565b820191906000526020600020905b8154815290600101906020018083116106d957829003601f168201915b5050505050905092915050565b60008181526002602052604081205473ffffffffffffffffffffffffffffffffffffffff166107b4576040517f08c379a000000000000000000000000000000000000000000000000000000000815260206004820152602c60248201527f4552433732313a20617070726f76656420717565727920666f72206e6f6e657860448201527f697374656e7420746f6b656e00000000000000000000000000000000000000006064820152608401610584565b5060009081526004602052604090205473ffffffffffffffffffffffffffffffffffffffff1690565b60006107e882610f78565b90508073ffffffffffffffffffffffffffffffffffffffff168373ffffffffffffffffffffffffffffffffffffffff1614156108a6576040517f08c379a000000000000000000000000000000000000000000000000000000000815260206004820152602160248201527f4552433732313a20617070726f76616c20746f2063757272656e74206f776e6560448201527f72000000000000000000000000000000000000000000000000000000000000006064820152608401610584565b3373ffffffffffffffffffffffffffffffffffffffff821614806108cf57506108cf813361042d565b61095b576040517f08c379a000000000000000000000000000000000000000000000000000000000815260206004820152603860248201527f4552433732313a20617070726f76652063616c6c6572206973206e6f74206f7760448201527f6e6572206e6f7220617070726f76656420666f7220616c6c00000000000000006064820152608401610584565b610965838361188b565b505050565b610974338261192b565b610a00576040517f08c379a000000000000000000000000000000000000000000000000000000000815260206004820152603160248201527f4552433732313a207472616e736665722063616c6c6572206973206e6f74206f60448201527f776e6572206e6f7220617070726f7665640000000000000000000000000000006064820152608401610584565b610965838383611a9b565b6000610a168361102a565b8210610aa4576040517f08c379a000000000000000000000000000000000000000000000000000000000815260206004820152602b60248201527f455243373231456e756d657261626c653a206f776e657220696e646578206f7560448201527f74206f6620626f756e64730000000000000000000000000000000000000000006064820152608401610584565b5073ffffffffffffffffffffffffffffffffffffffff919091166000908152600660209081526040808320938352929052205490565b610965838383604051806020016040528060008152506111b9565b6000610b0060085490565b8210610b8e576040517f08c379a000000000000000000000000000000000000000000000000000000000815260206004820152602c60248201527f455243373231456e756d657261626c653a20676c6f62616c20696e646578206f60448201527f7574206f6620626f756e647300000000000000000000000000000000000000006064820152608401610584565b60088281548110610bc8577f4e487b7100000000000000000000000000000000000000000000000000000000600052603260045260246000fd5b90600052602060002001549050919050565b80610be481610f78565b73ffffffffffffffffffffffffffffffffffffffff163373ffffffffffffffffffffffffffffffffffffffff1614610c78576040517f08c379a000000000000000000000000000000000000000000000000000000000815260206004820152601960248201527f73686f756c642062652074686520746f6b656e206f776e6572000000000000006044820152606401610584565b6000828152600b60205260408120600190610c9290611d0d565b610c9c91906138ea565b90505b8015610d72576000838152600b60205260408120610cbd9083611d17565b6000858152600b60205260409020909150610cd89082611d23565b506000848152600c6020908152604080832073ffffffffffffffffffffffffffffffffffffffff851684529091528120610d119161301f565b6040805185815273ffffffffffffffffffffffffffffffffffffffff831660208201527fb5941f6e357083b6bcaa8e6b7ae8cc1fe09249dd08844a1b6d621170d58c69e4910160405180910390a15080610d6a8161392d565b915050610c9f565b506000828152600b60205260408120610d8a90611d0d565b1115610e4d576000828152600b60205260408120610da89082611d17565b6000848152600b60205260409020909150610dc39082611d23565b506000838152600c6020908152604080832073ffffffffffffffffffffffffffffffffffffffff851684529091528120610dfc9161301f565b6040805184815273ffffffffffffffffffffffffffffffffffffffff831660208201527fb5941f6e357083b6bcaa8e6b7ae8cc1fe09249dd08844a1b6d621170d58c69e491015b60405180910390a1505b5050565b83610e5b81610f78565b73ffffffffffffffffffffffffffffffffffffffff163373ffffffffffffffffffffffffffffffffffffffff1614610eef576040517f08c379a000000000000000000000000000000000000000000000000000000000815260206004820152601960248201527f73686f756c642062652074686520746f6b656e206f776e6572000000000000006044820152606401610584565b610ef98585611d45565b6000858152600c6020908152604080832073ffffffffffffffffffffffffffffffffffffffff881684529091529020610f33908484612f7d565b507f3861e85a43f9ffebd047ed00860b7c5e4248d52895f611df7877c826ce5d229085858585604051610f699493929190613810565b60405180910390a15050505050565b60008181526002602052604081205473ffffffffffffffffffffffffffffffffffffffff16806104e4576040517f08c379a000000000000000000000000000000000000000000000000000000000815260206004820152602960248201527f4552433732313a206f776e657220717565727920666f72206e6f6e657869737460448201527f656e7420746f6b656e00000000000000000000000000000000000000000000006064820152608401610584565b600073ffffffffffffffffffffffffffffffffffffffff82166110cf576040517f08c379a000000000000000000000000000000000000000000000000000000000815260206004820152602a60248201527f4552433732313a2062616c616e636520717565727920666f7220746865207a6560448201527f726f2061646472657373000000000000000000000000000000000000000000006064820152608401610584565b5073ffffffffffffffffffffffffffffffffffffffff1660009081526003602052604090205490565b600a5473ffffffffffffffffffffffffffffffffffffffff163314611179576040517f08c379a000000000000000000000000000000000000000000000000000000000815260206004820181905260248201527f4f776e61626c653a2063616c6c6572206973206e6f7420746865206f776e65726044820152606401610584565b6111836000611e2f565b565b6000818152600b602052604090206060906104e490611ea6565b6060600180546105bc90613962565b610e4d338383611eb3565b6111c3338361192b565b61124f576040517f08c379a000000000000000000000000000000000000000000000000000000000815260206004820152603160248201527f4552433732313a207472616e736665722063616c6c6572206973206e6f74206f60448201527f776e6572206e6f7220617070726f7665640000000000000000000000000000006064820152608401610584565b61125b84848484611fe1565b50505050565b8161126b81610f78565b73ffffffffffffffffffffffffffffffffffffffff163373ffffffffffffffffffffffffffffffffffffffff16146112ff576040517f08c379a000000000000000000000000000000000000000000000000000000000815260206004820152601960248201527f73686f756c642062652074686520746f6b656e206f776e6572000000000000006044820152606401610584565b6000838152600b602052604090206113179083611d23565b506000838152600c6020908152604080832073ffffffffffffffffffffffffffffffffffffffff8616845290915281206113509161301f565b6040805184815273ffffffffffffffffffffffffffffffffffffffff841660208201527fb5941f6e357083b6bcaa8e6b7ae8cc1fe09249dd08844a1b6d621170d58c69e49101610e43565b60008181526002602052604090205460609073ffffffffffffffffffffffffffffffffffffffff16611429576040517f08c379a000000000000000000000000000000000000000000000000000000000815260206004820152601f60248201527f55524920717565727920666f72206e6f6e6578697374656e7420746f6b656e006044820152606401610584565b6114a461143583612084565b6040516020016114459190613715565b604080517fffffffffffffffffffffffffffffffffffffffffffffffffffffffffffffffe08184030181528282526000868152600d60209081529290206114909391929091016134a7565b604051602081830303815290604052612204565b6040516020016114b491906136d0565b6040516020818303038152906040529050919050565b6000828152600b602052604081206114e29083612406565b9392505050565b816114f381610f78565b73ffffffffffffffffffffffffffffffffffffffff163373ffffffffffffffffffffffffffffffffffffffff1614611587576040517f08c379a000000000000000000000000000000000000000000000000000000000815260206004820152601960248201527f73686f756c642062652074686520746f6b656e206f776e6572000000000000006044820152606401610584565b6109658383611d45565b8261159b81610f78565b73ffffffffffffffffffffffffffffffffffffffff163373ffffffffffffffffffffffffffffffffffffffff1614806115e757506115e7336000838152600b6020526040902090612406565b61164d576040517f08c379a000000000000000000000000000000000000000000000000000000000815260206004820152601c60248201527f616464726573732073686f756c6420626520617574686f72697a6564000000006044820152606401610584565b6000848152600c602090815260408083203384529091529020611671908484612f7d565b507f3861e85a43f9ffebd047ed00860b7c5e4248d52895f611df7877c826ce5d2290843385856040516116a79493929190613810565b60405180910390a150505050565b60006116c060085490565b6116cb906001613881565b9050610965818484612435565b60006116e360085490565b6116ee906001613881565b90506116fb818585612435565b61125b8183611d45565b600a5473ffffffffffffffffffffffffffffffffffffffff163314611786576040517f08c379a000000000000000000000000000000000000000000000000000000000815260206004820181905260248201527f4f776e61626c653a2063616c6c6572206973206e6f7420746865206f776e65726044820152606401610584565b73ffffffffffffffffffffffffffffffffffffffff8116611829576040517f08c379a000000000000000000000000000000000000000000000000000000000815260206004820152602660248201527f4f776e61626c653a206e6577206f776e657220697320746865207a65726f206160448201527f64647265737300000000000000000000000000000000000000000000000000006064820152608401610584565b61183281611e2f565b50565b60007fffffffff0000000000000000000000000000000000000000000000000000000082167f780e9d630000000000000000000000000000000000000000000000000000000014806104e457506104e482612458565b600081815260046020526040902080547fffffffffffffffffffffffff00000000000000000000000000000000000000001673ffffffffffffffffffffffffffffffffffffffff841690811790915581906118e582610f78565b73ffffffffffffffffffffffffffffffffffffffff167f8c5be1e5ebec7d5bd14f71427d1e84f3dd0314c0f7b2291e5b200ac8c7c3b92560405160405180910390a45050565b60008181526002602052604081205473ffffffffffffffffffffffffffffffffffffffff166119dc576040517f08c379a000000000000000000000000000000000000000000000000000000000815260206004820152602c60248201527f4552433732313a206f70657261746f7220717565727920666f72206e6f6e657860448201527f697374656e7420746f6b656e00000000000000000000000000000000000000006064820152608401610584565b60006119e783610f78565b90508073ffffffffffffffffffffffffffffffffffffffff168473ffffffffffffffffffffffffffffffffffffffff161480611a5657508373ffffffffffffffffffffffffffffffffffffffff16611a3e84610703565b73ffffffffffffffffffffffffffffffffffffffff16145b80611a93575073ffffffffffffffffffffffffffffffffffffffff80821660009081526005602090815260408083209388168352929052205460ff165b949350505050565b8273ffffffffffffffffffffffffffffffffffffffff16611abb82610f78565b73ffffffffffffffffffffffffffffffffffffffff1614611b5e576040517f08c379a000000000000000000000000000000000000000000000000000000000815260206004820152602560248201527f4552433732313a207472616e736665722066726f6d20696e636f72726563742060448201527f6f776e65720000000000000000000000000000000000000000000000000000006064820152608401610584565b73ffffffffffffffffffffffffffffffffffffffff8216611c00576040517f08c379a0000000000000000000000000000000000000000000000000000000008152602060048201526024808201527f4552433732313a207472616e7366657220746f20746865207a65726f2061646460448201527f72657373000000000000000000000000000000000000000000000000000000006064820152608401610584565b611c0b83838361253b565b611c1660008261188b565b73ffffffffffffffffffffffffffffffffffffffff83166000908152600360205260408120805460019290611c4c9084906138ea565b909155505073ffffffffffffffffffffffffffffffffffffffff82166000908152600360205260408120805460019290611c87908490613881565b909155505060008181526002602052604080822080547fffffffffffffffffffffffff00000000000000000000000000000000000000001673ffffffffffffffffffffffffffffffffffffffff86811691821790925591518493918716917fddf252ad1be2c89b69c2b068fc378daa952ba7f163c4a11628f55a4df523b3ef91a4505050565b60006104e4825490565b60006114e28383612641565b60006114e28373ffffffffffffffffffffffffffffffffffffffff8416612692565b6000828152600b60205260409020611d5d9082612406565b15611dc4576040517f08c379a000000000000000000000000000000000000000000000000000000000815260206004820152601a60248201527f6164647265737320616c726561647920617574686f72697a65640000000000006044820152606401610584565b6000828152600b60205260409020611ddc90826127fa565b506040805183815273ffffffffffffffffffffffffffffffffffffffff831660208201527fb6aac9d4aca74cc3c9b6f10668821ed9e7c5736feeb673bbbbd8b295ba2c5936910160405180910390a15050565b600a805473ffffffffffffffffffffffffffffffffffffffff8381167fffffffffffffffffffffffff0000000000000000000000000000000000000000831681179093556040519116919082907f8be0079c531659141344cd1fd0a4f28419497f9722a3daafe3b4186f6b6457e090600090a35050565b606060006114e28361281c565b8173ffffffffffffffffffffffffffffffffffffffff168373ffffffffffffffffffffffffffffffffffffffff161415611f49576040517f08c379a000000000000000000000000000000000000000000000000000000000815260206004820152601960248201527f4552433732313a20617070726f766520746f2063616c6c6572000000000000006044820152606401610584565b73ffffffffffffffffffffffffffffffffffffffff83811660008181526005602090815260408083209487168084529482529182902080547fffffffffffffffffffffffffffffffffffffffffffffffffffffffffffffff001686151590811790915591519182527f17307eab39ab6107e8899845ad3d59bd9653f200f220920489ca2b5937696c31910160405180910390a3505050565b611fec848484611a9b565b611ff884848484612878565b61125b576040517f08c379a000000000000000000000000000000000000000000000000000000000815260206004820152603260248201527f4552433732313a207472616e7366657220746f206e6f6e20455243373231526560448201527f63656976657220696d706c656d656e74657200000000000000000000000000006064820152608401610584565b6060816120c457505060408051808201909152600181527f3000000000000000000000000000000000000000000000000000000000000000602082015290565b8160005b81156120ee57806120d8816139b6565b91506120e79050600a83613899565b91506120c8565b60008167ffffffffffffffff811115612130577f4e487b7100000000000000000000000000000000000000000000000000000000600052604160045260246000fd5b6040519080825280601f01601f19166020018201604052801561215a576020820181803683370190505b5090505b8415611a935761216f6001836138ea565b915061217c600a866139ef565b612187906030613881565b60f81b8183815181106121c3577f4e487b7100000000000000000000000000000000000000000000000000000000600052603260045260246000fd5b60200101907effffffffffffffffffffffffffffffffffffffffffffffffffffffffffffff1916908160001a9053506121fd600a86613899565b945061215e565b606081516000141561222457505060408051602081019091526000815290565b6000604051806060016040528060408152602001613abf60409139905060006003845160026122539190613881565b61225d9190613899565b6122689060046138ad565b90506000612277826020613881565b67ffffffffffffffff8111156122b6577f4e487b7100000000000000000000000000000000000000000000000000000000600052604160045260246000fd5b6040519080825280601f01601f1916602001820160405280156122e0576020820181803683370190505b509050818152600183018586518101602084015b8183101561234e5760039283018051603f601282901c811687015160f890811b8552600c83901c8216880151811b6001860152600683901c8216880151811b60028601529116860151901b938201939093526004016122f4565b60038951066001811461236857600281146123b2576123f8565b7f3d3d0000000000000000000000000000000000000000000000000000000000007ffffffffffffffffffffffffffffffffffffffffffffffffffffffffffffffffe8301526123f8565b7f3d000000000000000000000000000000000000000000000000000000000000007fffffffffffffffffffffffffffffffffffffffffffffffffffffffffffffffff8301525b509398975050505050505050565b73ffffffffffffffffffffffffffffffffffffffff8116600090815260018301602052604081205415156114e2565b61243f3384612a77565b6000838152600d6020526040902061125b908383612f7d565b60007fffffffff0000000000000000000000000000000000000000000000000000000082167f80ac58cd0000000000000000000000000000000000000000000000000000000014806124eb57507fffffffff0000000000000000000000000000000000000000000000000000000082167f5b5e139f00000000000000000000000000000000000000000000000000000000145b806104e457507f01ffc9a7000000000000000000000000000000000000000000000000000000007fffffffff000000000000000000000000000000000000000000000000000000008316146104e4565b73ffffffffffffffffffffffffffffffffffffffff83166125a35761259e81600880546000838152600960205260408120829055600182018355919091527ff3f7a9fe364faab93b216da50a3214154f22a0a2b415b23a84c8169e8b636ee30155565b6125e0565b8173ffffffffffffffffffffffffffffffffffffffff168373ffffffffffffffffffffffffffffffffffffffff16146125e0576125e08382612a91565b73ffffffffffffffffffffffffffffffffffffffff82166126045761096581612b48565b8273ffffffffffffffffffffffffffffffffffffffff168273ffffffffffffffffffffffffffffffffffffffff1614610965576109658282612c6c565b600082600001828154811061267f577f4e487b7100000000000000000000000000000000000000000000000000000000600052603260045260246000fd5b9060005260206000200154905092915050565b600081815260018301602052604081205480156127f05760006126b66001836138ea565b85549091506000906126ca906001906138ea565b905081811461277d576000866000018281548110612711577f4e487b7100000000000000000000000000000000000000000000000000000000600052603260045260246000fd5b906000526020600020015490508087600001848154811061275b577f4e487b7100000000000000000000000000000000000000000000000000000000600052603260045260246000fd5b6000918252602080832090910192909255918252600188019052604090208390555b85548690806127b5577f4e487b7100000000000000000000000000000000000000000000000000000000600052603160045260246000fd5b6001900381819060005260206000200160009055905585600101600086815260200190815260200160002060009055600193505050506104e4565b60009150506104e4565b60006114e28373ffffffffffffffffffffffffffffffffffffffff8416612cbd565b60608160000180548060200260200160405190810160405280929190818152602001828054801561286c57602002820191906000526020600020905b815481526020019060010190808311612858575b50505050509050919050565b600073ffffffffffffffffffffffffffffffffffffffff84163b15612a6c576040517f150b7a0200000000000000000000000000000000000000000000000000000000815273ffffffffffffffffffffffffffffffffffffffff85169063150b7a02906128ef90339089908890889060040161375a565b602060405180830381600087803b15801561290957600080fd5b505af1925050508015612957575060408051601f3d9081017fffffffffffffffffffffffffffffffffffffffffffffffffffffffffffffffe0168201909252612954918101906132d3565b60015b612a21573d808015612985576040519150601f19603f3d011682016040523d82523d6000602084013e61298a565b606091505b508051612a19576040517f08c379a000000000000000000000000000000000000000000000000000000000815260206004820152603260248201527f4552433732313a207472616e7366657220746f206e6f6e20455243373231526560448201527f63656976657220696d706c656d656e74657200000000000000000000000000006064820152608401610584565b805181602001fd5b7fffffffff00000000000000000000000000000000000000000000000000000000167f150b7a0200000000000000000000000000000000000000000000000000000000149050611a93565b506001949350505050565b610e4d828260405180602001604052806000815250612d0c565b60006001612a9e8461102a565b612aa891906138ea565b600083815260076020526040902054909150808214612b085773ffffffffffffffffffffffffffffffffffffffff841660009081526006602090815260408083208584528252808320548484528184208190558352600790915290208190555b50600091825260076020908152604080842084905573ffffffffffffffffffffffffffffffffffffffff9094168352600681528383209183525290812055565b600854600090612b5a906001906138ea565b60008381526009602052604081205460088054939450909284908110612ba9577f4e487b7100000000000000000000000000000000000000000000000000000000600052603260045260246000fd5b906000526020600020015490508060088381548110612bf1577f4e487b7100000000000000000000000000000000000000000000000000000000600052603260045260246000fd5b6000918252602080832090910192909255828152600990915260408082208490558582528120556008805480612c50577f4e487b7100000000000000000000000000000000000000000000000000000000600052603160045260246000fd5b6001900381819060005260206000200160009055905550505050565b6000612c778361102a565b73ffffffffffffffffffffffffffffffffffffffff9093166000908152600660209081526040808320868452825280832085905593825260079052919091209190915550565b6000818152600183016020526040812054612d04575081546001818101845560008481526020808220909301849055845484825282860190935260409020919091556104e4565b5060006104e4565b612d168383612daf565b612d236000848484612878565b610965576040517f08c379a000000000000000000000000000000000000000000000000000000000815260206004820152603260248201527f4552433732313a207472616e7366657220746f206e6f6e20455243373231526560448201527f63656976657220696d706c656d656e74657200000000000000000000000000006064820152608401610584565b73ffffffffffffffffffffffffffffffffffffffff8216612e2c576040517f08c379a000000000000000000000000000000000000000000000000000000000815260206004820181905260248201527f4552433732313a206d696e7420746f20746865207a65726f20616464726573736044820152606401610584565b60008181526002602052604090205473ffffffffffffffffffffffffffffffffffffffff1615612eb8576040517f08c379a000000000000000000000000000000000000000000000000000000000815260206004820152601c60248201527f4552433732313a20746f6b656e20616c7265616479206d696e746564000000006044820152606401610584565b612ec46000838361253b565b73ffffffffffffffffffffffffffffffffffffffff82166000908152600360205260408120805460019290612efa908490613881565b909155505060008181526002602052604080822080547fffffffffffffffffffffffff00000000000000000000000000000000000000001673ffffffffffffffffffffffffffffffffffffffff861690811790915590518392907fddf252ad1be2c89b69c2b068fc378daa952ba7f163c4a11628f55a4df523b3ef908290a45050565b828054612f8990613962565b90600052602060002090601f016020900481019282612fab576000855561300f565b82601f10612fe2578280017fffffffffffffffffffffffffffffffffffffffffffffffffffffffffffffff0082351617855561300f565b8280016001018555821561300f579182015b8281111561300f578235825591602001919060010190612ff4565b5061301b929150613055565b5090565b50805461302b90613962565b6000825580601f1061303b575050565b601f01602090049060005260206000209081019061183291905b5b8082111561301b5760008155600101613056565b803573ffffffffffffffffffffffffffffffffffffffff8116811461308e57600080fd5b919050565b60008083601f8401126130a4578182fd5b50813567ffffffffffffffff8111156130bb578182fd5b6020830191508360208285010111156130d357600080fd5b9250929050565b6000602082840312156130eb578081fd5b6114e28261306a565b60008060408385031215613106578081fd5b61310f8361306a565b915061311d6020840161306a565b90509250929050565b60008060006060848603121561313a578081fd5b6131438461306a565b92506131516020850161306a565b9150604084013590509250925092565b60008060008060808587031215613176578081fd5b61317f8561306a565b935061318d6020860161306a565b925060408501359150606085013567ffffffffffffffff808211156131b0578283fd5b818701915087601f8301126131c3578283fd5b8135818111156131d5576131d5613a61565b604051601f82017fffffffffffffffffffffffffffffffffffffffffffffffffffffffffffffffe0908116603f0116810190838211818310171561321b5761321b613a61565b816040528281528a6020848701011115613233578586fd5b82602086016020830137918201602001949094529598949750929550505050565b60008060408385031215613266578182fd5b61326f8361306a565b915060208301358015158114613283578182fd5b809150509250929050565b600080604083850312156132a0578182fd5b6132a98361306a565b946020939093013593505050565b6000602082840312156132c8578081fd5b81356114e281613a90565b6000602082840312156132e4578081fd5b81516114e281613a90565b60008060208385031215613301578182fd5b823567ffffffffffffffff811115613317578283fd5b61332385828601613093565b90969095509350505050565b600080600060408486031215613343578283fd5b833567ffffffffffffffff811115613359578384fd5b61336586828701613093565b909450925061337890506020850161306a565b90509250925092565b600060208284031215613392578081fd5b5035919050565b600080604083850312156133ab578182fd5b8235915061311d6020840161306a565b600080600080606085870312156133d0578384fd5b843593506133e06020860161306a565b9250604085013567ffffffffffffffff8111156133fb578283fd5b61340787828801613093565b95989497509550505050565b600080600060408486031215613427578283fd5b83359250602084013567ffffffffffffffff811115613444578283fd5b61345086828701613093565b9497909650939450505050565b60008151808452613475816020860160208601613901565b601f017fffffffffffffffffffffffffffffffffffffffffffffffffffffffffffffffe0169290920160200192915050565b7f7b226e616d65223a22000000000000000000000000000000000000000000000081526000835160206134e08260098601838901613901565b7f222c0000000000000000000000000000000000000000000000000000000000006009928501928301527f226465736372697074696f6e223a2248797065726c696e6b204e465420636f6c600b8301527f6c656374696f6e2063726561746564207769746820506172616d6920466f756e602b8301527f646174696f6e2200000000000000000000000000000000000000000000000000604b8301527f2c0000000000000000000000000000000000000000000000000000000000000060528301527f22696d616765223a22000000000000000000000000000000000000000000000060538301528454605c908490600181811c90808316806135e457607f831692505b86831081141561361b577f4e487b710000000000000000000000000000000000000000000000000000000089526022600452602489fd5b80801561362f576001811461366257613692565b7fffffffffffffffffffffffffffffffffffffffffffffffffffffffffffffff008516878a015286848a01019550613692565b60008c8152602090208a5b858110156136885781548b82018a015290840190890161366d565b505086848a010195505b50505050506136c4817f227d000000000000000000000000000000000000000000000000000000000000815260020190565b98975050505050505050565b7f646174613a6170706c69636174696f6e2f6a736f6e3b6261736536342c00000081526000825161370881601d850160208701613901565b91909101601d0192915050565b7f48797065726c696e6b204e465420436f6c6c656374696f6e202320000000000081526000825161374d81601b850160208701613901565b91909101601b0192915050565b600073ffffffffffffffffffffffffffffffffffffffff808716835280861660208401525083604083015260806060830152613799608083018461345d565b9695505050505050565b6020808252825182820181905260009190848201906040850190845b818110156137f157835173ffffffffffffffffffffffffffffffffffffffff16835292840192918401916001016137bf565b50909695505050505050565b6020815260006114e2602083018461345d565b84815273ffffffffffffffffffffffffffffffffffffffff8416602082015260606040820152816060820152818360808301376000818301608090810191909152601f9092017fffffffffffffffffffffffffffffffffffffffffffffffffffffffffffffffe01601019392505050565b6000821982111561389457613894613a03565b500190565b6000826138a8576138a8613a32565b500490565b6000817fffffffffffffffffffffffffffffffffffffffffffffffffffffffffffffffff04831182151516156138e5576138e5613a03565b500290565b6000828210156138fc576138fc613a03565b500390565b60005b8381101561391c578181015183820152602001613904565b8381111561125b5750506000910152565b60008161393c5761393c613a03565b507fffffffffffffffffffffffffffffffffffffffffffffffffffffffffffffffff0190565b600181811c9082168061397657607f821691505b602082108114156139b0577f4e487b7100000000000000000000000000000000000000000000000000000000600052602260045260246000fd5b50919050565b60007fffffffffffffffffffffffffffffffffffffffffffffffffffffffffffffffff8214156139e8576139e8613a03565b5060010190565b6000826139fe576139fe613a32565b500690565b7f4e487b7100000000000000000000000000000000000000000000000000000000600052601160045260246000fd5b7f4e487b7100000000000000000000000000000000000000000000000000000000600052601260045260246000fd5b7f4e487b7100000000000000000000000000000000000000000000000000000000600052604160045260246000fd5b7fffffffff000000000000000000000000000000000000000000000000000000008116811461183257600080fdfe4142434445464748494a4b4c4d4e4f505152535455565758595a6162636465666768696a6b6c6d6e6f707172737475767778797a303132333435363738392b2fa164736f6c6343000804000a",
  "linkReferences": {},
  "deployedLinkReferences": {}
}