{
  "_format": "hh-sol-artifact-1",
  "contractName": "ParamiLink",
  "sourceName": "contracts/ParamiLink.sol",
  "abi": [
    {
      "inputs": [
        {
          "internalType": "address",
          "name": "contractAddress",
          "type": "address"
        },
        {
          "internalType": "uint256",
          "name": "tokenId",
          "type": "uint256"
        },
        {
          "internalType": "string",
          "name": "value",
          "type": "string"
        }
      ],
      "name": "setWNFTLink",
      "outputs": [],
      "stateMutability": "nonpayable",
      "type": "function"
    }
  ],
  "bytecode": "0x608060405234801561001057600080fd5b50610327806100206000396000f3fe608060405234801561001057600080fd5b506004361061002b5760003560e01c8063cfb9759314610030575b600080fd5b61004361003e36600461021d565b610045565b005b6040517f6352211e000000000000000000000000000000000000000000000000000000008152600481018490528490339073ffffffffffffffffffffffffffffffffffffffff831690636352211e9060240160206040518083038186803b1580156100af57600080fd5b505afa1580156100c3573d6000803e3d6000fd5b505050506040513d601f19601f820116820180604052508101906100e791906101fa565b73ffffffffffffffffffffffffffffffffffffffff1614610168576040517f08c379a000000000000000000000000000000000000000000000000000000000815260206004820152600f60248201527f6e6f7420746f6b656e206f776e65720000000000000000000000000000000000604482015260640160405180910390fd5b6040517fd0ade91b000000000000000000000000000000000000000000000000000000008152859073ffffffffffffffffffffffffffffffffffffffff82169063d0ade91b906101c0908890889088906004016102a1565b600060405180830381600087803b1580156101da57600080fd5b505af11580156101ee573d6000803e3d6000fd5b50505050505050505050565b60006020828403121561020b578081fd5b8151610216816102f5565b9392505050565b60008060008060608587031215610232578283fd5b843561023d816102f5565b935060208501359250604085013567ffffffffffffffff80821115610260578384fd5b818701915087601f830112610273578384fd5b813581811115610281578485fd5b886020828501011115610292578485fd5b95989497505060200194505050565b83815260406020820152816040820152818360608301376000818301606090810191909152601f9092017fffffffffffffffffffffffffffffffffffffffffffffffffffffffffffffffe016010192915050565b73ffffffffffffffffffffffffffffffffffffffff8116811461031757600080fd5b5056fea164736f6c6343000804000a",
  "linkReferences": {},
  "deployedLinkReferences": {}
}