{
  "_format": "hh-sol-artifact-1",
  "contractName": "ParamiLink",
  "sourceName": "contracts/ParamiLink.sol",
  "abi": [
    {
      "inputs": [
        {
          "internalType": "address",
          "name": "contractAddress",
          "type": "address"
        },
        {
          "internalType": "uint256",
          "name": "tokenId",
          "type": "uint256"
        },
        {
          "internalType": "string",
          "name": "value",
          "type": "string"
        }
      ],
      "name": "setHNFTLink",
      "outputs": [],
      "stateMutability": "nonpayable",
      "type": "function"
    }
  ],
  "bytecode": "0x608060405234801561001057600080fd5b506103ad806100206000396000f3fe608060405234801561001057600080fd5b506004361061002b5760003560e01c8063d69f49b714610030575b600080fd5b61004361003e3660046102a3565b610045565b005b6040517f6352211e000000000000000000000000000000000000000000000000000000008152600481018490528490339073ffffffffffffffffffffffffffffffffffffffff831690636352211e9060240160206040518083038186803b1580156100af57600080fd5b505afa1580156100c3573d6000803e3d6000fd5b505050506040513d601f19601f820116820180604052508101906100e79190610280565b73ffffffffffffffffffffffffffffffffffffffff1614610168576040517f08c379a000000000000000000000000000000000000000000000000000000000815260206004820152600f60248201527f6e6f7420746f6b656e206f776e65720000000000000000000000000000000000604482015260640160405180910390fd5b6040517fcfc3ac9200000000000000000000000000000000000000000000000000000000815260048101859052306024820152859073ffffffffffffffffffffffffffffffffffffffff82169063cfc3ac9290604401600060405180830381600087803b1580156101d857600080fd5b505af11580156101ec573d6000803e3d6000fd5b50506040517fd0ade91b00000000000000000000000000000000000000000000000000000000815273ffffffffffffffffffffffffffffffffffffffff8416925063d0ade91b915061024690889088908890600401610327565b600060405180830381600087803b15801561026057600080fd5b505af1158015610274573d6000803e3d6000fd5b50505050505050505050565b600060208284031215610291578081fd5b815161029c8161037b565b9392505050565b600080600080606085870312156102b8578283fd5b84356102c38161037b565b935060208501359250604085013567ffffffffffffffff808211156102e6578384fd5b818701915087601f8301126102f9578384fd5b813581811115610307578485fd5b886020828501011115610318578485fd5b95989497505060200194505050565b83815260406020820152816040820152818360608301376000818301606090810191909152601f9092017fffffffffffffffffffffffffffffffffffffffffffffffffffffffffffffffe016010192915050565b73ffffffffffffffffffffffffffffffffffffffff8116811461039d57600080fd5b5056fea164736f6c6343000804000a",
  "linkReferences": {},
  "deployedLinkReferences": {}
}