{
  "_format": "hh-sol-artifact-1",
  "contractName": "ERC721WContract",
  "sourceName": "contracts/ERC721WContract.sol",
  "abi": [
    {
      "inputs": [
        {
          "internalType": "string",
          "name": "name",
          "type": "string"
        },
        {
          "internalType": "string",
          "name": "symbol",
          "type": "string"
        },
        {
          "internalType": "address",
          "name": "_wrappedContract",
          "type": "address"
        },
        {
          "internalType": "address",
          "name": "_creator",
          "type": "address"
        },
        {
          "internalType": "string",
          "name": "contractURI",
          "type": "string"
        }
      ],
      "stateMutability": "nonpayable",
      "type": "constructor"
    },
    {
      "anonymous": false,
      "inputs": [
        {
          "indexed": true,
          "internalType": "address",
          "name": "owner",
          "type": "address"
        },
        {
          "indexed": true,
          "internalType": "address",
          "name": "approved",
          "type": "address"
        },
        {
          "indexed": true,
          "internalType": "uint256",
          "name": "tokenId",
          "type": "uint256"
        }
      ],
      "name": "Approval",
      "type": "event"
    },
    {
      "anonymous": false,
      "inputs": [
        {
          "indexed": true,
          "internalType": "address",
          "name": "owner",
          "type": "address"
        },
        {
          "indexed": true,
          "internalType": "address",
          "name": "operator",
          "type": "address"
        },
        {
          "indexed": false,
          "internalType": "bool",
          "name": "approved",
          "type": "bool"
        }
      ],
      "name": "ApprovalForAll",
      "type": "event"
    },
    {
      "anonymous": false,
      "inputs": [
        {
          "indexed": true,
          "internalType": "address",
          "name": "previousOwner",
          "type": "address"
        },
        {
          "indexed": true,
          "internalType": "address",
          "name": "newOwner",
          "type": "address"
        }
      ],
      "name": "OwnershipTransferred",
      "type": "event"
    },
    {
      "anonymous": false,
      "inputs": [
        {
          "indexed": true,
          "internalType": "uint256",
          "name": "tokenId",
          "type": "uint256"
        },
        {
          "indexed": true,
          "internalType": "address",
          "name": "addr",
          "type": "address"
        }
      ],
      "name": "TokenAuthorized",
      "type": "event"
    },
    {
      "anonymous": false,
      "inputs": [
        {
          "indexed": true,
          "internalType": "uint256",
          "name": "tokenId",
          "type": "uint256"
        },
        {
          "indexed": true,
          "internalType": "address",
          "name": "addr",
          "type": "address"
        }
      ],
      "name": "TokenRevoked",
      "type": "event"
    },
    {
      "anonymous": false,
      "inputs": [
        {
          "indexed": true,
          "internalType": "uint256",
          "name": "tokenId",
          "type": "uint256"
        }
      ],
      "name": "TokenUnwrapped",
      "type": "event"
    },
    {
      "anonymous": false,
      "inputs": [
        {
          "indexed": true,
          "internalType": "uint256",
          "name": "tokenId",
          "type": "uint256"
        },
        {
          "indexed": true,
          "internalType": "address",
          "name": "addr",
          "type": "address"
        },
        {
          "indexed": false,
          "internalType": "string",
          "name": "value",
          "type": "string"
        }
      ],
      "name": "TokenValueUpdated",
      "type": "event"
    },
    {
      "anonymous": false,
      "inputs": [
        {
          "indexed": true,
          "internalType": "uint256",
          "name": "tokenId",
          "type": "uint256"
        }
      ],
      "name": "TokenWrapped",
      "type": "event"
    },
    {
      "anonymous": false,
      "inputs": [
        {
          "indexed": true,
          "internalType": "address",
          "name": "from",
          "type": "address"
        },
        {
          "indexed": true,
          "internalType": "address",
          "name": "to",
          "type": "address"
        },
        {
          "indexed": true,
          "internalType": "uint256",
          "name": "tokenId",
          "type": "uint256"
        }
      ],
      "name": "Transfer",
      "type": "event"
    },
    {
      "inputs": [
        {
          "internalType": "address",
          "name": "to",
          "type": "address"
        },
        {
          "internalType": "uint256",
          "name": "tokenId",
          "type": "uint256"
        }
      ],
      "name": "approve",
      "outputs": [],
      "stateMutability": "nonpayable",
      "type": "function"
    },
    {
      "inputs": [
        {
          "internalType": "uint256",
          "name": "tokenId",
          "type": "uint256"
        },
        {
          "internalType": "address",
          "name": "authorizedAddress",
          "type": "address"
        }
      ],
      "name": "authorize",
      "outputs": [],
      "stateMutability": "nonpayable",
      "type": "function"
    },
    {
      "inputs": [
        {
          "internalType": "address",
          "name": "owner",
          "type": "address"
        }
      ],
      "name": "balanceOf",
      "outputs": [
        {
          "internalType": "uint256",
          "name": "",
          "type": "uint256"
        }
      ],
      "stateMutability": "view",
      "type": "function"
    },
    {
      "inputs": [],
      "name": "contractURI",
      "outputs": [
        {
          "internalType": "string",
          "name": "",
          "type": "string"
        }
      ],
      "stateMutability": "view",
      "type": "function"
    },
    {
      "inputs": [
        {
          "internalType": "uint256",
          "name": "tokenId",
          "type": "uint256"
        }
      ],
      "name": "getApproved",
      "outputs": [
        {
          "internalType": "address",
          "name": "",
          "type": "address"
        }
      ],
      "stateMutability": "view",
      "type": "function"
    },
    {
      "inputs": [
        {
          "internalType": "uint256",
          "name": "tokenId",
          "type": "uint256"
        }
      ],
      "name": "getAuthroizedAddresses",
      "outputs": [
        {
          "internalType": "address[]",
          "name": "",
          "type": "address[]"
        }
      ],
      "stateMutability": "view",
      "type": "function"
    },
    {
      "inputs": [],
      "name": "getCreator",
      "outputs": [
        {
          "internalType": "address",
          "name": "",
          "type": "address"
        }
      ],
      "stateMutability": "view",
      "type": "function"
    },
    {
      "inputs": [
        {
          "internalType": "uint256",
          "name": "tokenId",
          "type": "uint256"
        },
        {
          "internalType": "address",
          "name": "addr",
          "type": "address"
        }
      ],
      "name": "getValue",
      "outputs": [
        {
          "internalType": "string",
          "name": "",
          "type": "string"
        }
      ],
      "stateMutability": "view",
      "type": "function"
    },
    {
      "inputs": [],
      "name": "getWrappedContract",
      "outputs": [
        {
          "internalType": "address",
          "name": "",
          "type": "address"
        }
      ],
      "stateMutability": "view",
      "type": "function"
    },
    {
      "inputs": [
        {
          "internalType": "uint256",
          "name": "tokenId",
          "type": "uint256"
        },
        {
          "internalType": "address",
          "name": "addr",
          "type": "address"
        }
      ],
      "name": "isAddressAuthroized",
      "outputs": [
        {
          "internalType": "bool",
          "name": "",
          "type": "bool"
        }
      ],
      "stateMutability": "view",
      "type": "function"
    },
    {
      "inputs": [
        {
          "internalType": "address",
          "name": "owner",
          "type": "address"
        },
        {
          "internalType": "address",
          "name": "operator",
          "type": "address"
        }
      ],
      "name": "isApprovedForAll",
      "outputs": [
        {
          "internalType": "bool",
          "name": "",
          "type": "bool"
        }
      ],
      "stateMutability": "view",
      "type": "function"
    },
    {
      "inputs": [],
      "name": "name",
      "outputs": [
        {
          "internalType": "string",
          "name": "",
          "type": "string"
        }
      ],
      "stateMutability": "view",
      "type": "function"
    },
    {
      "inputs": [
        {
          "internalType": "address",
          "name": "",
          "type": "address"
        },
        {
          "internalType": "address",
          "name": "",
          "type": "address"
        },
        {
          "internalType": "uint256",
          "name": "",
          "type": "uint256"
        },
        {
          "internalType": "bytes",
          "name": "",
          "type": "bytes"
        }
      ],
      "name": "onERC721Received",
      "outputs": [
        {
          "internalType": "bytes4",
          "name": "",
          "type": "bytes4"
        }
      ],
      "stateMutability": "nonpayable",
      "type": "function"
    },
    {
      "inputs": [],
      "name": "owner",
      "outputs": [
        {
          "internalType": "address",
          "name": "",
          "type": "address"
        }
      ],
      "stateMutability": "view",
      "type": "function"
    },
    {
      "inputs": [
        {
          "internalType": "uint256",
          "name": "tokenId",
          "type": "uint256"
        }
      ],
      "name": "ownerOf",
      "outputs": [
        {
          "internalType": "address",
          "name": "",
          "type": "address"
        }
      ],
      "stateMutability": "view",
      "type": "function"
    },
    {
      "inputs": [],
      "name": "renounceOwnership",
      "outputs": [],
      "stateMutability": "nonpayable",
      "type": "function"
    },
    {
      "inputs": [
        {
          "internalType": "uint256",
          "name": "tokenId",
          "type": "uint256"
        },
        {
          "internalType": "address",
          "name": "addr",
          "type": "address"
        }
      ],
      "name": "revoke",
      "outputs": [],
      "stateMutability": "nonpayable",
      "type": "function"
    },
    {
      "inputs": [
        {
          "internalType": "uint256",
          "name": "tokenId",
          "type": "uint256"
        }
      ],
      "name": "revokeAll",
      "outputs": [],
      "stateMutability": "nonpayable",
      "type": "function"
    },
    {
      "inputs": [
        {
          "internalType": "address",
          "name": "from",
          "type": "address"
        },
        {
          "internalType": "address",
          "name": "to",
          "type": "address"
        },
        {
          "internalType": "uint256",
          "name": "tokenId",
          "type": "uint256"
        }
      ],
      "name": "safeTransferFrom",
      "outputs": [],
      "stateMutability": "nonpayable",
      "type": "function"
    },
    {
      "inputs": [
        {
          "internalType": "address",
          "name": "from",
          "type": "address"
        },
        {
          "internalType": "address",
          "name": "to",
          "type": "address"
        },
        {
          "internalType": "uint256",
          "name": "tokenId",
          "type": "uint256"
        },
        {
          "internalType": "bytes",
          "name": "_data",
          "type": "bytes"
        }
      ],
      "name": "safeTransferFrom",
      "outputs": [],
      "stateMutability": "nonpayable",
      "type": "function"
    },
    {
      "inputs": [
        {
          "internalType": "address",
          "name": "operator",
          "type": "address"
        },
        {
          "internalType": "bool",
          "name": "approved",
          "type": "bool"
        }
      ],
      "name": "setApprovalForAll",
      "outputs": [],
      "stateMutability": "nonpayable",
      "type": "function"
    },
    {
      "inputs": [
        {
          "internalType": "string",
          "name": "uri",
          "type": "string"
        }
      ],
      "name": "setContractURI",
      "outputs": [],
      "stateMutability": "nonpayable",
      "type": "function"
    },
    {
      "inputs": [
        {
          "internalType": "uint256",
          "name": "tokenId",
          "type": "uint256"
        },
        {
          "internalType": "string",
          "name": "value",
          "type": "string"
        }
      ],
      "name": "setValue",
      "outputs": [],
      "stateMutability": "nonpayable",
      "type": "function"
    },
    {
      "inputs": [
        {
          "internalType": "bytes4",
          "name": "interfaceId",
          "type": "bytes4"
        }
      ],
      "name": "supportsInterface",
      "outputs": [
        {
          "internalType": "bool",
          "name": "",
          "type": "bool"
        }
      ],
      "stateMutability": "view",
      "type": "function"
    },
    {
      "inputs": [],
      "name": "symbol",
      "outputs": [
        {
          "internalType": "string",
          "name": "",
          "type": "string"
        }
      ],
      "stateMutability": "view",
      "type": "function"
    },
    {
      "inputs": [
        {
          "internalType": "uint256",
          "name": "index",
          "type": "uint256"
        }
      ],
      "name": "tokenByIndex",
      "outputs": [
        {
          "internalType": "uint256",
          "name": "",
          "type": "uint256"
        }
      ],
      "stateMutability": "view",
      "type": "function"
    },
    {
      "inputs": [
        {
          "internalType": "address",
          "name": "owner",
          "type": "address"
        },
        {
          "internalType": "uint256",
          "name": "index",
          "type": "uint256"
        }
      ],
      "name": "tokenOfOwnerByIndex",
      "outputs": [
        {
          "internalType": "uint256",
          "name": "",
          "type": "uint256"
        }
      ],
      "stateMutability": "view",
      "type": "function"
    },
    {
      "inputs": [
        {
          "internalType": "uint256",
          "name": "tokenId",
          "type": "uint256"
        }
      ],
      "name": "tokenURI",
      "outputs": [
        {
          "internalType": "string",
          "name": "",
          "type": "string"
        }
      ],
      "stateMutability": "view",
      "type": "function"
    },
    {
      "inputs": [],
      "name": "totalSupply",
      "outputs": [
        {
          "internalType": "uint256",
          "name": "",
          "type": "uint256"
        }
      ],
      "stateMutability": "view",
      "type": "function"
    },
    {
      "inputs": [
        {
          "internalType": "address",
          "name": "from",
          "type": "address"
        },
        {
          "internalType": "address",
          "name": "to",
          "type": "address"
        },
        {
          "internalType": "uint256",
          "name": "tokenId",
          "type": "uint256"
        }
      ],
      "name": "transferFrom",
      "outputs": [],
      "stateMutability": "nonpayable",
      "type": "function"
    },
    {
      "inputs": [
        {
          "internalType": "address",
          "name": "newOwner",
          "type": "address"
        }
      ],
      "name": "transferOwnership",
      "outputs": [],
      "stateMutability": "nonpayable",
      "type": "function"
    },
    {
      "inputs": [
        {
          "internalType": "uint256",
          "name": "tokenId",
          "type": "uint256"
        }
      ],
      "name": "unwrap",
      "outputs": [],
      "stateMutability": "nonpayable",
      "type": "function"
    },
    {
      "inputs": [
        {
          "internalType": "uint256",
          "name": "tokenId",
          "type": "uint256"
        }
      ],
      "name": "wrap",
      "outputs": [],
      "stateMutability": "nonpayable",
      "type": "function"
    }
  ],
  "bytecode": "0x60806040523480156200001157600080fd5b5060405162003dee38038062003dee83398101604081905262000034916200045f565b8451859085906200004d906000906020850190620002c0565b50805162000063906001906020840190620002c0565b505050620000806200007a6200026a60201b60201c565b6200026e565b6040516301ffc9a760e01b81526380ac58cd60e01b60048201526001600160a01b038416906301ffc9a79060240160206040518083038186803b158015620000c757600080fd5b505afa158015620000dc573d6000803e3d6000fd5b505050506040513d601f19601f8201168201806040525081019062000102919062000436565b6200013e5760405162461bcd60e51b81526020600482015260076024820152664945524337323160c81b60448201526064015b60405180910390fd5b6040516301ffc9a760e01b8152635b5e139f60e01b60048201526001600160a01b038416906301ffc9a79060240160206040518083038186803b1580156200018557600080fd5b505afa1580156200019a573d6000803e3d6000fd5b505050506040513d601f19601f82011682018060405250810190620001c0919062000436565b6200020e5760405162461bcd60e51b815260206004820152601b60248201527f6e6f7420737570706f727420494552433732314d657461646174610000000000604482015260640162000135565b600b80546001600160a01b038086166001600160a01b031992831617909255600c80549285169290911691909117905580516200025390600f906020840190620002c0565b506200025f826200026e565b505050505062000565565b3390565b600a80546001600160a01b038381166001600160a01b0319831681179093556040519116919082907f8be0079c531659141344cd1fd0a4f28419497f9722a3daafe3b4186f6b6457e090600090a35050565b828054620002ce9062000512565b90600052602060002090601f016020900481019282620002f257600085556200033d565b82601f106200030d57805160ff19168380011785556200033d565b828001600101855582156200033d579182015b828111156200033d57825182559160200191906001019062000320565b506200034b9291506200034f565b5090565b5b808211156200034b576000815560010162000350565b80516001600160a01b03811681146200037e57600080fd5b919050565b600082601f83011262000394578081fd5b81516001600160401b0380821115620003b157620003b16200054f565b604051601f8301601f19908116603f01168101908282118183101715620003dc57620003dc6200054f565b81604052838152602092508683858801011115620003f8578485fd5b8491505b838210156200041b5785820183015181830184015290820190620003fc565b838211156200042c57848385830101525b9695505050505050565b60006020828403121562000448578081fd5b8151801515811462000458578182fd5b9392505050565b600080600080600060a0868803121562000477578081fd5b85516001600160401b03808211156200048e578283fd5b6200049c89838a0162000383565b96506020880151915080821115620004b2578283fd5b620004c089838a0162000383565b9550620004d06040890162000366565b9450620004e06060890162000366565b93506080880151915080821115620004f6578283fd5b50620005058882890162000383565b9150509295509295909350565b600181811c908216806200052757607f821691505b602082108114156200054957634e487b7160e01b600052602260045260246000fd5b50919050565b634e487b7160e01b600052604160045260246000fd5b61387980620005756000396000f3fe608060405234801561001057600080fd5b506004361061020b5760003560e01c806370a082311161012a578063b3744a4a116100bd578063e8a3d4851161008c578063ea598cb011610071578063ea598cb0146104fb578063ee8baaf31461050e578063f2fde38b1461052157600080fd5b8063e8a3d485146104aa578063e985e9c5146104b257600080fd5b8063b3744a4a14610451578063b88d4fde14610471578063c87b56dd14610484578063de0e9a3e1461049757600080fd5b806395d89b41116100f957806395d89b41146104105780639d1939db14610418578063a22cb4651461042b578063a446d25f1461043e57600080fd5b806370a08231146103c4578063715018a6146103d75780638da5cb5b146103df578063938e3d7b146103fd57600080fd5b806320d154da116101a257806342842e0e1161017157806342842e0e1461036d5780634f6ccce71461038057806358047913146103935780636352211e146103b157600080fd5b806320d154da1461032157806323b872dd146103345780632a850667146103475780632f745c591461035a57600080fd5b80630e611d38116101de5780630e611d381461029a5780630ee2cb10146102ad578063150b7a02146102cb57806318160ddd1461030f57600080fd5b806301ffc9a71461021057806306fdde0314610238578063081812fc1461024d578063095ea7b314610285575b600080fd5b61022361021e366004613387565b610534565b60405190151581526020015b60405180910390f35b610240610628565b60405161022f9190613632565b61026061025b366004613472565b6106ba565b60405173ffffffffffffffffffffffffffffffffffffffff909116815260200161022f565b61029861029336600461335c565b610799565b005b6102406102a836600461348a565b610926565b600c5473ffffffffffffffffffffffffffffffffffffffff16610260565b6102de6102d9366004613284565b6109ea565b6040517fffffffff00000000000000000000000000000000000000000000000000000000909116815260200161022f565b6008545b60405190815260200161022f565b61029861032f36600461348a565b610a14565b610298610342366004613244565b610b4b565b61029861035536600461348a565b610bec565b61031361036836600461335c565b610d6a565b61029861037b366004613244565b610e39565b61031361038e366004613472565b610e54565b600b5473ffffffffffffffffffffffffffffffffffffffff16610260565b6102606103bf366004613472565b610f39565b6103136103d23660046131d4565b610feb565b6102986110b9565b600a5473ffffffffffffffffffffffffffffffffffffffff16610260565b61029861040b3660046133bf565b611146565b6102406111d3565b6102986104263660046134ae565b6111e2565b61029861043936600461332b565b6112dd565b61029861044c366004613472565b6112ec565b61046461045f366004613472565b61154b565b60405161022f919061358b565b61029861047f366004613284565b611565565b610240610492366004613472565b61160d565b6102986104a5366004613472565b6116d2565b61024061187b565b6102236104c036600461320c565b73ffffffffffffffffffffffffffffffffffffffff918216600090815260056020908152604080832093909416825291909152205460ff1690565b610298610509366004613472565b611901565b61022361051c36600461348a565b611c9b565b61029861052f3660046131d4565b611cba565b60007fffffffff0000000000000000000000000000000000000000000000000000000082167f80ac58cd0000000000000000000000000000000000000000000000000000000014806105c757507fffffffff0000000000000000000000000000000000000000000000000000000082167f150b7a0200000000000000000000000000000000000000000000000000000000145b8061061357507fffffffff0000000000000000000000000000000000000000000000000000000082167f780e9d6300000000000000000000000000000000000000000000000000000000145b80610622575061062282611dea565b92915050565b6060600080546106379061376a565b80601f01602080910402602001604051908101604052809291908181526020018280546106639061376a565b80156106b05780601f10610685576101008083540402835291602001916106b0565b820191906000526020600020905b81548152906001019060200180831161069357829003601f168201915b5050505050905090565b60008181526002602052604081205473ffffffffffffffffffffffffffffffffffffffff16610770576040517f08c379a000000000000000000000000000000000000000000000000000000000815260206004820152602c60248201527f4552433732313a20617070726f76656420717565727920666f72206e6f6e657860448201527f697374656e7420746f6b656e000000000000000000000000000000000000000060648201526084015b60405180910390fd5b5060009081526004602052604090205473ffffffffffffffffffffffffffffffffffffffff1690565b60006107a482610f39565b90508073ffffffffffffffffffffffffffffffffffffffff168373ffffffffffffffffffffffffffffffffffffffff161415610862576040517f08c379a000000000000000000000000000000000000000000000000000000000815260206004820152602160248201527f4552433732313a20617070726f76616c20746f2063757272656e74206f776e6560448201527f72000000000000000000000000000000000000000000000000000000000000006064820152608401610767565b3373ffffffffffffffffffffffffffffffffffffffff8216148061088b575061088b81336104c0565b610917576040517f08c379a000000000000000000000000000000000000000000000000000000000815260206004820152603860248201527f4552433732313a20617070726f76652063616c6c6572206973206e6f74206f7760448201527f6e6572206e6f7220617070726f76656420666f7220616c6c00000000000000006064820152608401610767565b6109218383611e40565b505050565b6000828152600e6020908152604080832073ffffffffffffffffffffffffffffffffffffffff8516845290915290208054606091906109649061376a565b80601f01602080910402602001604051908101604052809291908181526020018280546109909061376a565b80156109dd5780601f106109b2576101008083540402835291602001916109dd565b820191906000526020600020905b8154815290600101906020018083116109c057829003601f168201915b5050505050905092915050565b7f150b7a02000000000000000000000000000000000000000000000000000000005b949350505050565b81610a1e81610f39565b73ffffffffffffffffffffffffffffffffffffffff163373ffffffffffffffffffffffffffffffffffffffff1614610ab2576040517f08c379a000000000000000000000000000000000000000000000000000000000815260206004820152601960248201527f73686f756c642062652074686520746f6b656e206f776e6572000000000000006044820152606401610767565b6000838152600d60205260409020610aca9083611ee0565b506000838152600e6020908152604080832073ffffffffffffffffffffffffffffffffffffffff861684529091528120610b039161309c565b60405173ffffffffffffffffffffffffffffffffffffffff83169084907f1c8c99eaf5bb030b04c4b98b84ee23a66d28a7e7c92ae562912a24fe94ffed0690600090a3505050565b610b553382611f02565b610be1576040517f08c379a000000000000000000000000000000000000000000000000000000000815260206004820152603160248201527f4552433732313a207472616e736665722063616c6c6572206973206e6f74206f60448201527f776e6572206e6f7220617070726f7665640000000000000000000000000000006064820152608401610767565b61092183838361206e565b81610bf681610f39565b73ffffffffffffffffffffffffffffffffffffffff163373ffffffffffffffffffffffffffffffffffffffff1614610c8a576040517f08c379a000000000000000000000000000000000000000000000000000000000815260206004820152601960248201527f73686f756c642062652074686520746f6b656e206f776e6572000000000000006044820152606401610767565b6000838152600d60205260409020610ca290836122e0565b15610d09576040517f08c379a000000000000000000000000000000000000000000000000000000000815260206004820152601a60248201527f6164647265737320616c726561647920617574686f72697a65640000000000006044820152606401610767565b6000838152600d60205260409020610d21908361230f565b5060405173ffffffffffffffffffffffffffffffffffffffff83169084907fd82e6111cdbffbcb00b2f39bbb6eea58cf9c1e794db4ea5ced77ab57fbc9c99f90600090a3505050565b6000610d7583610feb565b8210610e03576040517f08c379a000000000000000000000000000000000000000000000000000000000815260206004820152602b60248201527f455243373231456e756d657261626c653a206f776e657220696e646578206f7560448201527f74206f6620626f756e64730000000000000000000000000000000000000000006064820152608401610767565b5073ffffffffffffffffffffffffffffffffffffffff919091166000908152600660209081526040808320938352929052205490565b61092183838360405180602001604052806000815250611565565b6000610e5f60085490565b8210610eed576040517f08c379a000000000000000000000000000000000000000000000000000000000815260206004820152602c60248201527f455243373231456e756d657261626c653a20676c6f62616c20696e646578206f60448201527f7574206f6620626f756e647300000000000000000000000000000000000000006064820152608401610767565b60088281548110610f27577f4e487b7100000000000000000000000000000000000000000000000000000000600052603260045260246000fd5b90600052602060002001549050919050565b60008181526002602052604081205473ffffffffffffffffffffffffffffffffffffffff1680610622576040517f08c379a000000000000000000000000000000000000000000000000000000000815260206004820152602960248201527f4552433732313a206f776e657220717565727920666f72206e6f6e657869737460448201527f656e7420746f6b656e00000000000000000000000000000000000000000000006064820152608401610767565b600073ffffffffffffffffffffffffffffffffffffffff8216611090576040517f08c379a000000000000000000000000000000000000000000000000000000000815260206004820152602a60248201527f4552433732313a2062616c616e636520717565727920666f7220746865207a6560448201527f726f2061646472657373000000000000000000000000000000000000000000006064820152608401610767565b5073ffffffffffffffffffffffffffffffffffffffff1660009081526003602052604090205490565b600a5473ffffffffffffffffffffffffffffffffffffffff16331461113a576040517f08c379a000000000000000000000000000000000000000000000000000000000815260206004820181905260248201527f4f776e61626c653a2063616c6c6572206973206e6f7420746865206f776e65726044820152606401610767565b6111446000612331565b565b600a5473ffffffffffffffffffffffffffffffffffffffff1633146111c7576040517f08c379a000000000000000000000000000000000000000000000000000000000815260206004820181905260248201527f4f776e61626c653a2063616c6c6572206973206e6f7420746865206f776e65726044820152606401610767565b610921600f83836130d6565b6060600180546106379061376a565b826111fb336000838152600d60205260409020906122e0565b611261576040517f08c379a000000000000000000000000000000000000000000000000000000000815260206004820152601c60248201527f616464726573732073686f756c6420626520617574686f72697a6564000000006044820152606401610767565b6000848152600e6020908152604080832033845290915290206112859084846130d6565b503373ffffffffffffffffffffffffffffffffffffffff16847f4fec343d8f41990a558fae573e3fa68959a1106fc16c0b9191ec6f2a8037ed5885856040516112cf9291906135e5565b60405180910390a350505050565b6112e83383836123a8565b5050565b806112f681610f39565b73ffffffffffffffffffffffffffffffffffffffff163373ffffffffffffffffffffffffffffffffffffffff161461138a576040517f08c379a000000000000000000000000000000000000000000000000000000000815260206004820152601960248201527f73686f756c642062652074686520746f6b656e206f776e6572000000000000006044820152606401610767565b6000828152600d602052604081206001906113a4906124d6565b6113ae91906136f2565b90505b8015611479576000838152600d602052604081206113cf90836124e0565b6000858152600d602052604090209091506113ea9082611ee0565b506000848152600e6020908152604080832073ffffffffffffffffffffffffffffffffffffffff8516845290915281206114239161309c565b60405173ffffffffffffffffffffffffffffffffffffffff82169085907f1c8c99eaf5bb030b04c4b98b84ee23a66d28a7e7c92ae562912a24fe94ffed0690600090a3508061147181613735565b9150506113b1565b506000828152600d60205260408120611491906124d6565b11156112e8576000828152600d602052604081206114af90826124e0565b6000848152600d602052604090209091506114ca9082611ee0565b506000838152600e6020908152604080832073ffffffffffffffffffffffffffffffffffffffff8516845290915281206115039161309c565b60405173ffffffffffffffffffffffffffffffffffffffff82169084907f1c8c99eaf5bb030b04c4b98b84ee23a66d28a7e7c92ae562912a24fe94ffed0690600090a3505050565b6000818152600d60205260409020606090610622906124ec565b61156f3383611f02565b6115fb576040517f08c379a000000000000000000000000000000000000000000000000000000000815260206004820152603160248201527f4552433732313a207472616e736665722063616c6c6572206973206e6f74206f60448201527f776e6572206e6f7220617070726f7665640000000000000000000000000000006064820152608401610767565b611607848484846124f9565b50505050565b600b546040517fc87b56dd0000000000000000000000000000000000000000000000000000000081526004810183905260609173ffffffffffffffffffffffffffffffffffffffff169063c87b56dd9060240160006040518083038186803b15801561167857600080fd5b505afa15801561168c573d6000803e3d6000fd5b505050506040513d6000823e601f3d9081017fffffffffffffffffffffffffffffffffffffffffffffffffffffffffffffffe016820160405261062291908101906133ff565b806116dc81610f39565b73ffffffffffffffffffffffffffffffffffffffff163373ffffffffffffffffffffffffffffffffffffffff1614611770576040517f08c379a000000000000000000000000000000000000000000000000000000000815260206004820152601960248201527f73686f756c642062652074686520746f6b656e206f776e6572000000000000006044820152606401610767565b600b5473ffffffffffffffffffffffffffffffffffffffff166342842e0e30336040517fffffffff0000000000000000000000000000000000000000000000000000000060e085901b16815273ffffffffffffffffffffffffffffffffffffffff92831660048201529116602482015260448101859052606401600060405180830381600087803b15801561180457600080fd5b505af1158015611818573d6000803e3d6000fd5b5050506000838152600d6020526040902061183391506124d6565b1561184157611841826112ec565b61184c333084610e39565b60405182907ff8e2f293d64778cfbd2b86729cb73ee6e080d780d9334368c8ab78474fc8212090600090a25050565b6060600f805461188a9061376a565b151590506118f4576040517f08c379a000000000000000000000000000000000000000000000000000000000815260206004820152601560248201527f5f636f6e747261637455524920697320656d70747900000000000000000000006044820152606401610767565b600f80546106379061376a565b33600b546040517f6352211e0000000000000000000000000000000000000000000000000000000081526004810184905273ffffffffffffffffffffffffffffffffffffffff9283169290911690636352211e9060240160206040518083038186803b15801561197057600080fd5b505afa158015611984573d6000803e3d6000fd5b505050506040513d601f19601f820116820180604052508101906119a891906131f0565b73ffffffffffffffffffffffffffffffffffffffff1614611a25576040517f08c379a000000000000000000000000000000000000000000000000000000000815260206004820152601260248201527f73686f756c64206f776e20746f6b656e496400000000000000000000000000006044820152606401610767565b600b546040517f081812fc00000000000000000000000000000000000000000000000000000000815260048101839052309173ffffffffffffffffffffffffffffffffffffffff169063081812fc9060240160206040518083038186803b158015611a8f57600080fd5b505afa158015611aa3573d6000803e3d6000fd5b505050506040513d601f19601f82011682018060405250810190611ac791906131f0565b73ffffffffffffffffffffffffffffffffffffffff1614611b44576040517f08c379a000000000000000000000000000000000000000000000000000000000815260206004820152601c60248201527f73686f756c6420617070726f766520746f6b656e4964206669727374000000006044820152606401610767565b600b5473ffffffffffffffffffffffffffffffffffffffff166342842e0e336040517fffffffff0000000000000000000000000000000000000000000000000000000060e084901b16815273ffffffffffffffffffffffffffffffffffffffff909116600482015230602482015260448101849052606401600060405180830381600087803b158015611bd657600080fd5b505af1158015611bea573d6000803e3d6000fd5b50505060008281526002602052604090205473ffffffffffffffffffffffffffffffffffffffff161580159150611c3e575030611c2682610f39565b73ffffffffffffffffffffffffffffffffffffffff16145b15611c6357611c5e303383604051806020016040528060008152506124f9565b611c6d565b611c6d338261259c565b60405181907fbbd8046f2003b15c5e4858368dad2435a58ae1e6b8e64b8edab81490292e339590600090a250565b6000828152600d60205260408120611cb390836122e0565b9392505050565b600a5473ffffffffffffffffffffffffffffffffffffffff163314611d3b576040517f08c379a000000000000000000000000000000000000000000000000000000000815260206004820181905260248201527f4f776e61626c653a2063616c6c6572206973206e6f7420746865206f776e65726044820152606401610767565b73ffffffffffffffffffffffffffffffffffffffff8116611dde576040517f08c379a000000000000000000000000000000000000000000000000000000000815260206004820152602660248201527f4f776e61626c653a206e6577206f776e657220697320746865207a65726f206160448201527f64647265737300000000000000000000000000000000000000000000000000006064820152608401610767565b611de781612331565b50565b60007fffffffff0000000000000000000000000000000000000000000000000000000082167f780e9d630000000000000000000000000000000000000000000000000000000014806106225750610622826125b6565b600081815260046020526040902080547fffffffffffffffffffffffff00000000000000000000000000000000000000001673ffffffffffffffffffffffffffffffffffffffff84169081179091558190611e9a82610f39565b73ffffffffffffffffffffffffffffffffffffffff167f8c5be1e5ebec7d5bd14f71427d1e84f3dd0314c0f7b2291e5b200ac8c7c3b92560405160405180910390a45050565b6000611cb38373ffffffffffffffffffffffffffffffffffffffff8416612699565b60008181526002602052604081205473ffffffffffffffffffffffffffffffffffffffff16611fb3576040517f08c379a000000000000000000000000000000000000000000000000000000000815260206004820152602c60248201527f4552433732313a206f70657261746f7220717565727920666f72206e6f6e657860448201527f697374656e7420746f6b656e00000000000000000000000000000000000000006064820152608401610767565b6000611fbe83610f39565b90508073ffffffffffffffffffffffffffffffffffffffff168473ffffffffffffffffffffffffffffffffffffffff16148061202d57508373ffffffffffffffffffffffffffffffffffffffff16612015846106ba565b73ffffffffffffffffffffffffffffffffffffffff16145b80610a0c575073ffffffffffffffffffffffffffffffffffffffff80821660009081526005602090815260408083209388168352929052205460ff16610a0c565b8273ffffffffffffffffffffffffffffffffffffffff1661208e82610f39565b73ffffffffffffffffffffffffffffffffffffffff1614612131576040517f08c379a000000000000000000000000000000000000000000000000000000000815260206004820152602560248201527f4552433732313a207472616e736665722066726f6d20696e636f72726563742060448201527f6f776e65720000000000000000000000000000000000000000000000000000006064820152608401610767565b73ffffffffffffffffffffffffffffffffffffffff82166121d3576040517f08c379a0000000000000000000000000000000000000000000000000000000008152602060048201526024808201527f4552433732313a207472616e7366657220746f20746865207a65726f2061646460448201527f72657373000000000000000000000000000000000000000000000000000000006064820152608401610767565b6121de838383612801565b6121e9600082611e40565b73ffffffffffffffffffffffffffffffffffffffff8316600090815260036020526040812080546001929061221f9084906136f2565b909155505073ffffffffffffffffffffffffffffffffffffffff8216600090815260036020526040812080546001929061225a9084906136da565b909155505060008181526002602052604080822080547fffffffffffffffffffffffff00000000000000000000000000000000000000001673ffffffffffffffffffffffffffffffffffffffff86811691821790925591518493918716917fddf252ad1be2c89b69c2b068fc378daa952ba7f163c4a11628f55a4df523b3ef91a4505050565b73ffffffffffffffffffffffffffffffffffffffff811660009081526001830160205260408120541515611cb3565b6000611cb38373ffffffffffffffffffffffffffffffffffffffff8416612907565b600a805473ffffffffffffffffffffffffffffffffffffffff8381167fffffffffffffffffffffffff0000000000000000000000000000000000000000831681179093556040519116919082907f8be0079c531659141344cd1fd0a4f28419497f9722a3daafe3b4186f6b6457e090600090a35050565b8173ffffffffffffffffffffffffffffffffffffffff168373ffffffffffffffffffffffffffffffffffffffff16141561243e576040517f08c379a000000000000000000000000000000000000000000000000000000000815260206004820152601960248201527f4552433732313a20617070726f766520746f2063616c6c6572000000000000006044820152606401610767565b73ffffffffffffffffffffffffffffffffffffffff83811660008181526005602090815260408083209487168084529482529182902080547fffffffffffffffffffffffffffffffffffffffffffffffffffffffffffffff001686151590811790915591519182527f17307eab39ab6107e8899845ad3d59bd9653f200f220920489ca2b5937696c31910160405180910390a3505050565b6000610622825490565b6000611cb38383612956565b60606000611cb3836129a7565b61250484848461206e565b61251084848484612a03565b611607576040517f08c379a000000000000000000000000000000000000000000000000000000000815260206004820152603260248201527f4552433732313a207472616e7366657220746f206e6f6e20455243373231526560448201527f63656976657220696d706c656d656e74657200000000000000000000000000006064820152608401610767565b6112e8828260405180602001604052806000815250612bff565b60007fffffffff0000000000000000000000000000000000000000000000000000000082167f80ac58cd00000000000000000000000000000000000000000000000000000000148061264957507fffffffff0000000000000000000000000000000000000000000000000000000082167f5b5e139f00000000000000000000000000000000000000000000000000000000145b8061062257507f01ffc9a7000000000000000000000000000000000000000000000000000000007fffffffff00000000000000000000000000000000000000000000000000000000831614610622565b600081815260018301602052604081205480156127f75760006126bd6001836136f2565b85549091506000906126d1906001906136f2565b9050818114612784576000866000018281548110612718577f4e487b7100000000000000000000000000000000000000000000000000000000600052603260045260246000fd5b9060005260206000200154905080876000018481548110612762577f4e487b7100000000000000000000000000000000000000000000000000000000600052603260045260246000fd5b6000918252602080832090910192909255918252600188019052604090208390555b85548690806127bc577f4e487b7100000000000000000000000000000000000000000000000000000000600052603160045260246000fd5b600190038181906000526020600020016000905590558560010160008681526020019081526020016000206000905560019350505050610622565b6000915050610622565b73ffffffffffffffffffffffffffffffffffffffff83166128695761286481600880546000838152600960205260408120829055600182018355919091527ff3f7a9fe364faab93b216da50a3214154f22a0a2b415b23a84c8169e8b636ee30155565b6128a6565b8173ffffffffffffffffffffffffffffffffffffffff168373ffffffffffffffffffffffffffffffffffffffff16146128a6576128a68382612ca2565b73ffffffffffffffffffffffffffffffffffffffff82166128ca5761092181612d59565b8273ffffffffffffffffffffffffffffffffffffffff168273ffffffffffffffffffffffffffffffffffffffff1614610921576109218282612e7d565b600081815260018301602052604081205461294e57508154600181810184556000848152602080822090930184905584548482528286019093526040902091909155610622565b506000610622565b6000826000018281548110612994577f4e487b7100000000000000000000000000000000000000000000000000000000600052603260045260246000fd5b9060005260206000200154905092915050565b6060816000018054806020026020016040519081016040528092919081815260200182805480156129f757602002820191906000526020600020905b8154815260200190600101908083116129e3575b50505050509050919050565b600073ffffffffffffffffffffffffffffffffffffffff84163b15612bf7576040517f150b7a0200000000000000000000000000000000000000000000000000000000815273ffffffffffffffffffffffffffffffffffffffff85169063150b7a0290612a7a903390899088908890600401613542565b602060405180830381600087803b158015612a9457600080fd5b505af1925050508015612ae2575060408051601f3d9081017fffffffffffffffffffffffffffffffffffffffffffffffffffffffffffffffe0168201909252612adf918101906133a3565b60015b612bac573d808015612b10576040519150601f19603f3d011682016040523d82523d6000602084013e612b15565b606091505b508051612ba4576040517f08c379a000000000000000000000000000000000000000000000000000000000815260206004820152603260248201527f4552433732313a207472616e7366657220746f206e6f6e20455243373231526560448201527f63656976657220696d706c656d656e74657200000000000000000000000000006064820152608401610767565b805181602001fd5b7fffffffff00000000000000000000000000000000000000000000000000000000167f150b7a0200000000000000000000000000000000000000000000000000000000149050610a0c565b506001610a0c565b612c098383612ece565b612c166000848484612a03565b610921576040517f08c379a000000000000000000000000000000000000000000000000000000000815260206004820152603260248201527f4552433732313a207472616e7366657220746f206e6f6e20455243373231526560448201527f63656976657220696d706c656d656e74657200000000000000000000000000006064820152608401610767565b60006001612caf84610feb565b612cb991906136f2565b600083815260076020526040902054909150808214612d195773ffffffffffffffffffffffffffffffffffffffff841660009081526006602090815260408083208584528252808320548484528184208190558352600790915290208190555b50600091825260076020908152604080842084905573ffffffffffffffffffffffffffffffffffffffff9094168352600681528383209183525290812055565b600854600090612d6b906001906136f2565b60008381526009602052604081205460088054939450909284908110612dba577f4e487b7100000000000000000000000000000000000000000000000000000000600052603260045260246000fd5b906000526020600020015490508060088381548110612e02577f4e487b7100000000000000000000000000000000000000000000000000000000600052603260045260246000fd5b6000918252602080832090910192909255828152600990915260408082208490558582528120556008805480612e61577f4e487b7100000000000000000000000000000000000000000000000000000000600052603160045260246000fd5b6001900381819060005260206000200160009055905550505050565b6000612e8883610feb565b73ffffffffffffffffffffffffffffffffffffffff9093166000908152600660209081526040808320868452825280832085905593825260079052919091209190915550565b73ffffffffffffffffffffffffffffffffffffffff8216612f4b576040517f08c379a000000000000000000000000000000000000000000000000000000000815260206004820181905260248201527f4552433732313a206d696e7420746f20746865207a65726f20616464726573736044820152606401610767565b60008181526002602052604090205473ffffffffffffffffffffffffffffffffffffffff1615612fd7576040517f08c379a000000000000000000000000000000000000000000000000000000000815260206004820152601c60248201527f4552433732313a20746f6b656e20616c7265616479206d696e746564000000006044820152606401610767565b612fe360008383612801565b73ffffffffffffffffffffffffffffffffffffffff821660009081526003602052604081208054600192906130199084906136da565b909155505060008181526002602052604080822080547fffffffffffffffffffffffff00000000000000000000000000000000000000001673ffffffffffffffffffffffffffffffffffffffff861690811790915590518392907fddf252ad1be2c89b69c2b068fc378daa952ba7f163c4a11628f55a4df523b3ef908290a45050565b5080546130a89061376a565b6000825580601f106130b8575050565b601f016020900490600052602060002090810190611de79190613178565b8280546130e29061376a565b90600052602060002090601f0160209004810192826131045760008555613168565b82601f1061313b578280017fffffffffffffffffffffffffffffffffffffffffffffffffffffffffffffff00823516178555613168565b82800160010185558215613168579182015b8281111561316857823582559160200191906001019061314d565b50613174929150613178565b5090565b5b808211156131745760008155600101613179565b60008083601f84011261319e578182fd5b50813567ffffffffffffffff8111156131b5578182fd5b6020830191508360208285010111156131cd57600080fd5b9250929050565b6000602082840312156131e5578081fd5b8135611cb38161381c565b600060208284031215613201578081fd5b8151611cb38161381c565b6000806040838503121561321e578081fd5b82356132298161381c565b915060208301356132398161381c565b809150509250929050565b600080600060608486031215613258578081fd5b83356132638161381c565b925060208401356132738161381c565b929592945050506040919091013590565b60008060008060808587031215613299578081fd5b84356132a48161381c565b935060208501356132b48161381c565b925060408501359150606085013567ffffffffffffffff8111156132d6578182fd5b8501601f810187136132e6578182fd5b80356132f96132f482613694565b613645565b81815288602083850101111561330d578384fd5b81602084016020830137908101602001929092525092959194509250565b6000806040838503121561333d578182fd5b82356133488161381c565b915060208301358015158114613239578182fd5b6000806040838503121561336e578182fd5b82356133798161381c565b946020939093013593505050565b600060208284031215613398578081fd5b8135611cb38161383e565b6000602082840312156133b4578081fd5b8151611cb38161383e565b600080602083850312156133d1578182fd5b823567ffffffffffffffff8111156133e7578283fd5b6133f38582860161318d565b90969095509350505050565b600060208284031215613410578081fd5b815167ffffffffffffffff811115613426578182fd5b8201601f81018413613436578182fd5b80516134446132f482613694565b818152856020838501011115613458578384fd5b613469826020830160208601613709565b95945050505050565b600060208284031215613483578081fd5b5035919050565b6000806040838503121561349c578182fd5b8235915060208301356132398161381c565b6000806000604084860312156134c2578081fd5b83359250602084013567ffffffffffffffff8111156134df578182fd5b6134eb8682870161318d565b9497909650939450505050565b60008151808452613510816020860160208601613709565b601f017fffffffffffffffffffffffffffffffffffffffffffffffffffffffffffffffe0169290920160200192915050565b600073ffffffffffffffffffffffffffffffffffffffff80871683528086166020840152508360408301526080606083015261358160808301846134f8565b9695505050505050565b6020808252825182820181905260009190848201906040850190845b818110156135d957835173ffffffffffffffffffffffffffffffffffffffff16835292840192918401916001016135a7565b50909695505050505050565b60208152816020820152818360408301376000818301604090810191909152601f9092017fffffffffffffffffffffffffffffffffffffffffffffffffffffffffffffffe0160101919050565b602081526000611cb360208301846134f8565b604051601f82017fffffffffffffffffffffffffffffffffffffffffffffffffffffffffffffffe016810167ffffffffffffffff8111828210171561368c5761368c6137ed565b604052919050565b600067ffffffffffffffff8211156136ae576136ae6137ed565b50601f017fffffffffffffffffffffffffffffffffffffffffffffffffffffffffffffffe01660200190565b600082198211156136ed576136ed6137be565b500190565b600082821015613704576137046137be565b500390565b60005b8381101561372457818101518382015260200161370c565b838111156116075750506000910152565b600081613744576137446137be565b507fffffffffffffffffffffffffffffffffffffffffffffffffffffffffffffffff0190565b600181811c9082168061377e57607f821691505b602082108114156137b8577f4e487b7100000000000000000000000000000000000000000000000000000000600052602260045260246000fd5b50919050565b7f4e487b7100000000000000000000000000000000000000000000000000000000600052601160045260246000fd5b7f4e487b7100000000000000000000000000000000000000000000000000000000600052604160045260246000fd5b73ffffffffffffffffffffffffffffffffffffffff81168114611de757600080fd5b7fffffffff0000000000000000000000000000000000000000000000000000000081168114611de757600080fdfea164736f6c6343000804000a",
  "linkReferences": {},
  "deployedLinkReferences": {}
}